S01700004C504C445F5364436172645F4B36302E7372656341
S3151FFF0000D0FEFF1F1104FF1F2104FF1FB548FF1F4F
S3151FFF00102104FF1F2104FF1F2104FF1F00000000F3
S3151FFF00200000000000000000000000002104FF1F69
S3151FFF00302104FF1F000000002104FF1F2104FF1FD3
S3151FFF00404926FF1F5D26FF1F7126FF1F8526FF1FE0
S3151FFF00509926FF1FAD26FF1FC126FF1FD526FF1F90
S3151FFF0060E926FF1FFD26FF1F1127FF1F2527FF1F3E
S3151FFF00703927FF1F4D27FF1F6127FF1F7527FF1FEC
S3151FFF00802104FF1F2104FF1F2104FF1F2104FF1F40
S3151FFF00902104FF1F2104FF1F2104FF1F2104FF1F30
S3151FFF00A0D54FFF1F1B50FF1F0146FF1F8946FF1F0F
S3151FFF00B01147FF1FC540FF1FCD40FF1FD540FF1F25
S3151FFF00C0E140FF1FEB40FF1FF540FF1FF740FF1FDC
S3151FFF00D0F940FF1FFB40FF1F0341FF1F0B41FF1F80
S3151FFF00E01741FF1F2141FF1F4941FF1F4B41FF1FA4
S3151FFF00F04D41FF1FF32FFF1F2104FF1F2130FF1F3E
S3151FFF01002104FF1F4F30FF1F2104FF1F7D30FF1FDD
S3151FFF01102104FF1FAB30FF1F2104FF1FD930FF1F15
S3151FFF01202104FF1F3156FF1F3B56FF1F2104FF1FD1
S3151FFF01302104FF1F2104FF1F790CFF1F830CFF1FC5
S3151FFF01408D0CFF1F2104FF1FA951FF1F0000000079
S3151FFF0150C34AFF1FD74AFF1FEB4AFF1FFF4AFF1F57
S3151FFF01607550FF1F5D56FF1F2104FF1F1F51FF1FE6
S3151FFF01700351FF1FE550FF1F2F51FF1F2104FF1FB5
S3151FFF01802104FF1FBD4DFF1F174EFF1F4951FF1FA5
S3151FFF01902104FF1F1344FF1F2104FF1F431AFF1FC5
S3151FFF01A0551AFF1F671AFF1F791AFF1F8B1AFF1F8B
S3151FFF01B02104FF1F2104FF1F2104FF1F2104FF1F0F
S3151FFF01C02104FF1F2104FF1F2104FF1F2104FF1FFF
S3151FFF01D02104FF1F2104FF1F2104FF1F2104FF1FEF
S3151FFF01E0BF48FF1FBF48FF1FBF48FF1FBF48FF1F57
S3151FFF04100148804701480047B147FF1FD54EFF1FC1
S3151FFF042004F04DBA0FB43EB59DF81C0010F00F0F28
S3151FFF043004D13521DFF8E00700F06AFC0698DFF8E4
S3151FFF0440DC17884215D10024DFF8D407016851F065
S3151FFF0450807101609DF81C00C00726D506A984B0D0
S3151FFF046068461C2200F05EFC0FBC00F0E1F8050099
S3151FFF047047E00698DFF8AC17884207D10124DFF85B
S3151FFF0480A007016851F000710160E3E70698DFF8E6
S3151FFF04909817884207D10224DFF89007016851F0A9
S3151FFF04A080710160D6E7002044E09DF81C0080079D
S3151FFF04B00AD506A984B068461C2200F033FC0FBC80
S3151FFF04C000F041F905001CE09DF81C0040070AD506
S3151FFF04D006A984B068461C2200F024FC0FBC00F05E
S3151FFF04E0A9FB05000DE09DF81C00000709D506A90D
S3151FFF04F084B068461C2200F015FC0FBC00F0B8FB49
S3151FFF050005002800C0B2012812D10C9800280FD071
S3151FFF05100C98DFF81C17E4B241F824009DF82C0055
S3151FFF0520012805D10698006850F04000069908601B
S3151FFF05302800C0B23EBC5DF814FBF8B504000D00E1
S3151FFF054016001F0042F21170864204D3C121DFF845
S3151FFF0550C80600F0DDFB3A00D2B22900C9B220005F
S3151FFF056000F03DF9002801D100201BE0069801008D
S3151FFF0570C9B2242902D142F210718E1BA1680091C4
S3151FFF05800099491C4E4342F21071B6FBF1F1C0B2FE
S3151FFF05902A00D2B204EBC202D060EDB204EBC50053
S3151FFF05A001610120F2BD7CB504000D00160042F269
S3151FFF05B01170864204D3F921DFF85C0600F0A8FB11
S3151FFF05C02800C0B204EBC000C068400702D542F244
S3151FFF05D01070861BA06800900098401C464342F28D
S3151FFF05E01070B6FBF0F0EDB204EBC50108610120F8
S3151FFF05F076BD406880B2704700214160704738B5AD
S3151FFF0600040015000A00D2B20821200000F0E7F807
S3151FFF0610002801D100200AE02A00D2B209212000BA
S3151FFF062000F0DDF8002801D1002000E0012032BDD7
S3151FFF06300FB42DE9F041089C099D9DF828609DF890
S3151FFF06402970DDF81880002C05D140F2A721DFF8AD
S3151FFF0650C80500F05DFB3800C0B2402805DB4FF42C
S3151FFF06602A71DFF8B40500F053FBDFF82C0600688C
S3151FFF0670A04201D2002062E0802101FB04F1B0FB02
S3151FFF0680F1F34FF6FF718B4258D207225FF0400CF2
S3151FFF06900CFB04FCB0FBFCFC8C452FD206226346E9
S3151FFF06A05FEA441CB0FBFCFC8C4527D20522634640
S3151FFF06B05FEA041CB0FBFCFC8C451FD20422634679
S3151FFF06C05FEAC40CB0FBFCFC8C4517D203226346C2
S3151FFF06D05FEA840CB0FBFCFC8C450FD202226346FB
S3151FFF06E05FEA440CB0FBFCFC8C4507D20122634634
S3151FFF06F0B0FBF4F0884201D2002203000020C8F8A5
S3151FFF070000000020C8F804000020C8F84C00C8F8F5
S3151FFF07100830F6B2B60116F0C006FFB217F03F0754
S3151FFF07203E43C8F86860C8F86450D2B212F0070299
S3151FFF073052F00802C8F80020012000E00020BDE8A3
S3151FFF0740F0015DF814FB0FB470B59DF823500A9C9A
S3151FFF0750049E2800C0B2082805DB4FF43F71DFF85F
S3151FFF0760B80400F0D5FAC020C6F884000020306018
S3151FFF0770002070600020F0640020B0607FF0010051
S3151FFF0780C6F880000020B0673068EDB215F0070588
S3151FFF079055F0080505433560306830F0200030609E
S3151FFF07A02000002809D0DFF87404864209D10020F3
S3151FFF07B0DFF87C14C0B241F82040012070BC5DF801
S3151FFF07C014FBDFF86004864201D10120F0E7DFF852
S3151FFF07D05804864201D10220EAE70020EEE7DFF840
S3151FFF07E0BC34984240F0ED80C9B200290ED00229D1
S3151FFF07F043D027D3042976D05AD3062900F0A980E0
S3151FFF0800C0F08C80072900F0BF80D8E01000C0B26F
S3151FFF0810032809D1DFF88804016831F4E06151F438
S3151FFF08204071016001207047D2B23D2A08D1DFF81F
S3151FFF08307404016831F4E06151F480610160F1E7EE
S3151FFF08400020F0E71000C0B2042808D1DFF85804D3
S3151FFF0850016831F4E06151F440710160E2E7D2B201
S3151FFF08603E2A08D1DFF84404016831F4E06151F4F0
S3151FFF087080610160F2E70020D5E71000C0B20528AE
S3151FFF088008D1DFF82C04016831F4E06151F440719F
S3151FFF08900160C7E7D2B23F2A08D1DFF81804016803
S3151FFF08A031F4E06151F480610160F2E70020BAE79D
S3151FFF08B01000C0B2062808D1DFF8FC03016831F427
S3151FFF08C0E06151F440710160ACE7D2B2402A08D112
S3151FFF08D0DFF8E803016831F4E06151F480610160DC
S3151FFF08E0F2E700209FE71000C0B2072808D1DFF804
S3151FFF08F0D003016831F4E06151F44071016091E763
S3151FFF0900D2B2602A08D1DFF8BC03016831F4E06177
S3151FFF091051F480610160F2E7002084E71000C0B246
S3151FFF0920002808D1DFF8A003016831F4E06151F414
S3151FFF09304071016076E7D2B2612A08D1DFF88C03D6
S3151FFF0940016831F4E06151F480610160F2E7002034
S3151FFF095069E71000C0B2012808D1DFF874030168E8
S3151FFF096031F4E06151F4407101605BE7D2B2622A54
S3151FFF097008D1DFF86003016831F4E06151F480614B
S3151FFF09800160F2E700204EE71000C0B2022808D12F
S3151FFF0990DFF84403016831F4E06151F440710160EF
S3151FFF09A040E7D2B2632A08D1DFF83003016831F47A
S3151FFF09B0E06151F480610160F2E7002033E7002018
S3151FFF09C031E7DFF81C33984240F0A780C9B20029F0
S3151FFF09D006D001292CD0082952D0092976D081E0CB
S3151FFF09E01000C0B2082808D1DFF8F802016831F4F9
S3151FFF09F0E06151F44071016014E71000C0B20C288A
S3151FFF0A0008D1DFF8E402016831F4E06151F4407167
S3151FFF0A100160F1E7D2B2202A08D1DFF8D0020168C0
S3151FFF0A2031F4E06151F440710160E5E70020FAE619
S3151FFF0A301000C0B2092808D1DFF8B402016831F4EB
S3151FFF0A40E06151F440710160ECE61000C0B20D2861
S3151FFF0A5008D1DFF8A002016831F4E06151F440715B
S3151FFF0A600160F1E7D2B2212A08D1DFF88C020168B3
S3151FFF0A7031F4E06151F440710160E5E70020D2E6F1
S3151FFF0A801000C0B2082808D1DFF85802016831F4F8
S3151FFF0A90E06151F4C0610160C4E61000C0B20C28CA
S3151FFF0AA006D1DFF84402016851F4E0610160F3E704
S3151FFF0AB0D2B2202A08D1DFF83402016831F4E0618F
S3151FFF0AC051F4C0610160E7E70020ACE61000C0B239
S3151FFF0AD0092809D1DFF81802016831F4E06151F4E2
S3151FFF0AE0C061016000209EE61000C0B20D2806D12E
S3151FFF0AF0DFF80002016851F4E0610160F2E7D2B24C
S3151FFF0B00212A08D1DFF8F001016831F4E06151F4C1
S3151FFF0B10C0610160E6E7002085E6434B984277D127
S3151FFF0B20C9B2002906D001291FD0082938D00929A3
S3151FFF0B3051D06BE01000C0B20A2808D1DFF8BC0104
S3151FFF0B40016831F4E06151F4407101606AE6D2B287
S3151FFF0B50322A08D1DFF8A801016831F4E06151F4A8
S3151FFF0B6040710160F2E700205DE61000C0B20B285E
S3151FFF0B7008D1DFF89001016831F4E06151F440714B
S3151FFF0B8001604FE6D2B2332A08D1DFF87C01016834
S3151FFF0B9031F4E06151F440710160F2E7002042E653
S3151FFF0BA01000C0B20A2808D1DFF85001016831F4DE
S3151FFF0BB0E06151F4C061016034E6D2B2322A08D136
S3151FFF0BC0DFF83C01016831F4E06151F4C061016057
S3151FFF0BD0F2E7002027E61000C0B20B2808D1DFF886
S3151FFF0BE02401016831F4E06151F4C061016019E627
S3151FFF0BF0D2B2332A08D1DFF81001016831F4E06160
S3151FFF0C0051F4C0610160F2E700200CE600200AE6FE
S3151FFF0C10002008E6000000009453FF1F00800340DA
S3151FFF0C203C8004400090034000800B40308004400E
S3151FFF0C304459FF1F0FB49DF8120000994A6D52F0D9
S3151FFF0C4001024A650022CA6400224A604FF6FF72FC
S3151FFF0C508A60D1F88020C0B21043C1F88000D1F856
S3151FFF0C60800050F00100C1F88000012004B07047DA
S3151FFF0C700FB4002004B0704780B524480068804732
S3151FFF0C8001BD80B521484068804701BD80B51F481B
S3151FFF0C908068804701BD0000D056FF1F00800340BC
S3151FFF0CA00C90044004B004401090044008B0044068
S3151FFF0CB0149004400CB004401890044010B0044038
S3151FFF0CC01C90044010C004400090044014C0044010
S3151FFF0CD00490044018C00440089004401CC0044000
S3151FFF0CE000900340209004403090044000A0044031
S3151FFF0CF0249004403490044004A0044028900440EC
S3151FFF0D0048A004402C9004404CA004404459FF1FA8
S3151FFF0D1080B50A000100024800F0BBFAFEE700BFDC
S3151FFF0D209454FF1F103A07D330B4B1E83810103A66
S3151FFF0D30A0E83810F9D230BC530724BFB1E808101A
S3151FFF0D40A0E8081044BF51F8043B40F8043BD20704
S3151FFF0D5024BF31F8022B20F8022B44BF0B780370F8
S3151FFF0D607047121F17D35B0009D151F8043B20F8B8
S3151FFF0D70023B1B0C121F20F8023BF6D20BE051F869
S3151FFF0D80043B00F8013B1B0A20F8023B1B0C121FFA
S3151FFF0D9000F8013BF3D238BF121D521E24BF11F8B4
S3151FFF0DA0013B00F8013BF8D8704730B4002513E02C
S3151FFF0DB050F8042BD30744BFA9F101039A18091F43
S3151FFF0DC0042942F8045BFAD213468C0744BF1580E9
S3151FFF0DD09B1CC90748BF1D7050F8041B0029E7D18C
S3151FFF0DE030BC704710B50C001168012902D00229CB
S3151FFF0DF004D009E040B25168884705E09168087042
S3151FFF0E009068401C9060FFE72068401C206010BD63
S3151FFF0E1030B40400002000252570651C002A1AD057
S3151FFF0E200968002907D130212970401C30BC704743
S3151FFF0E3030310C000AE00029F8D091FBF3F203FBD7
S3151FFF0E4012110029F4D5C94331310C0011002C7042
S3151FFF0E506D1C401CEFE70968002909D13021297055
S3151FFF0E60401CE3E737310C0011002C706D1C401C32
S3151FFF0E700029DBD0B1FBF3F203FB12110A29F1D2D2
S3151FFF0E8030310C00F0E7F8B504000D0016001F0007
S3151FFF0E9005E03A0031003020FFF7A4FF641CAC4287
S3151FFF0EA0F7DBF1BDF8B504000D0016001F0005E0C6
S3151FFF0EB03A0031002020FFF795FF641CAC42F7DB99
S3151FFF0EC0F1BD2DE9F04F8DB0050091460020009032
S3151FFF0ED088460CE02A006946FFF784FF05E0D9F82C
S3151FFF0EE0000019F104090099016018F1010898F92A
S3151FFF0EF00000002800F0C981252811D00A2804D038
S3151FFF0F002A006946FFF76EFF09E02A0069460D2092
S3151FFF0F10FFF768FF2A0069460A20FFF763FFE4E72A
S3151FFF0F200026002001E056F0010600281ED118F109
S3151FFF0F30010898F9001020290BD023290FD02B2940
S3151FFF0F4004D02D29EFD0302906D00BE056F002062C
S3151FFF0F50EBE756F00406E8E756F00806E5E756F016
S3151FFF0F601006E2E7B8F101080120DEE7002700209F
S3151FFF0F7004E00A2202FB071130390F0000280BD1AC
S3151FFF0F8018F1010898F900100A00303A092AF0D91A
S3151FFF0F90B8F101080120F1E718F1010191F90000ED
S3151FFF0FA02E280CD10020FFE7002809D1491C91F9F3
S3151FFF0FB00020303A092AF7D9491E0120F4E7491EB6
S3151FFF0FC0481C90F900104C2906D0682902D06C29BD
S3151FFF0FD001D002E002E001E000E0401E10F101082F
S3151FFF0FE098F90000010058296FD0622900F0CB80C5
S3151FFF0FF0632900F01981642913D0692911D06E293D
S3151FFF10003FF46DAF6F2900F0B180702900F0C880E3
S3151FFF1010732900F01381752900F0CF80782954D0EA
S3151FFF102058E7D9F8000019F1040903900A23012292
S3151FFF103003A904A8FFF7ECFE824604A800EB0A0BE0
S3151FFF10400398002803D52D241AF1010A0CE0B007D7
S3151FFF105003D52B241AF1010A06E0700703D52024B6
S3151FFF10601AF1010A00E0002400200290300710D574
S3151FFF1070002C04D02A0069462000FFF7B3FE01208B
S3151FFF108002902B006A4639005046FFF7FCFEBA4610
S3151FFF109010E0F0070ED42B006A4639005046FFF7C3
S3151FFF10A001FF002C04D02A0069462000FFF79AFE95
S3151FFF10B0012002900298002806D1002C04D02A0096
S3151FFF10C069462000FFF78EFEA1E0D9F8000019F14F
S3151FFF10D0040901901023002201A904A8FFF798FE17
S3151FFF10E0824604A800EB0A0B0024300714D5F0062E
S3151FFF10F00AD52A0069463020FFF774FE2A00694683
S3151FFF11007820FFF76FFE01242B006A4639005046F1
S3151FFF1110FFF7B9FEBA4618E0F00716D4F00601D559
S3151FFF11201AF1020A2B006A4639005046FFF7BAFE2C
S3151FFF1130F0060AD52A0069463020FFF753FE2A001C
S3151FFF114069467820FFF74EFE0124F0060DD5002CC9
S3151FFF11500BD12A0069463020FFF744FE2A00694655
S3151FFF11607820FFF73FFE1AF1020A50E0D9F8000078
S3151FFF117019F1040901900823002201A904A8FFF70A
S3151FFF118047FE824625E0D9F8000019F104090190B0
S3151FFF11900223002201A904A8FFF73AFE824618E0A0
S3151FFF11A0D9F8000019F1040901901023002201A9A3
S3151FFF11B004A8FFF72DFE82460BE0D9F8000019F1B0
S3151FFF11C0040901900A23002201A904A8FFF720FEA4
S3151FFF11D0824604A800EB0A0B300707D52B006A4689
S3151FFF11E039005046FFF74FFEBA4610E0F0070ED400
S3151FFF11F02B006A4639005046FFF754FE07E02A00C8
S3151FFF120069469BF90000FFF7EDFDBBF1010B9BF94B
S3151FFF121000000028F3D1F00705D52B006A463900D9
S3151FFF12205046FFF73FFE60E6D9F8000019F10409A3
S3151FFF123040B22A006946FFF7D5FD56E6D9F80040AA
S3151FFF124019F10409002C1FD0200000F033F8824645
S3151FFF1250F0070DD42B006A4639005046FFF722FED2
S3151FFF126006E02A00694694F90000FFF7BBFD641CE0
S3151FFF127094F900000028F4D1F00705D52B006A4624
S3151FFF128039005046FFF70EFE2FE600980DB0BDE85A
S3151FFF1290F08F0EB4F0B501000120009004480190B5
S3151FFF12A005AA6846FFF70DFE04B05DF810FB0000A8
S3151FFF12B04956FF1F02000020002A02D1002006E028
S3151FFF12C0401C11004A1C91F900100029F8D17047E4
S3151FFF12D038B5DFF8CC45DFF8CC5525604FF4C07025
S3151FFF12E0606001202073012060730020A060210031
S3151FFF12F084B068461422FFF715FD0FBC00F008FBEC
S3151FFF130025604FF4C0606060210084B068461422D8
S3151FFF1310FFF708FD0FBC00F0FBFA31BD10B4082222
S3151FFF13200121DFF884351960DFF880350021196048
S3151FFF133010E00021DFF87845216005E00106F8D5AA
S3151FFF13400121DFF86C4521600121196000BF0021D3
S3151FFF13501960400011004A1EC9B20029EED110BC08
S3151FFF13607047000010B408220021DFF83C351960D2
S3151FFF1370DFF838350021196010E00021DFF830450E
S3151FFF1380216005E00106F8D50121DFF8244521601C
S3151FFF13900121196000BF00211960400011004A1E7C
S3151FFF13A0C9B20029EED110BC704710B50400B1F1C8
S3151FFF13B05000C0B2FFF7D6FF2000C0B2000950F0A1
S3151FFF13C01000C0B2FFF7CEFF14F00F0454F0010454
S3151FFF13D02000C0B2FFF7C6FF10BD70B50400002581
S3151FFF13E009E02000C0B2FFF799FF761C3000C0B29C
S3151FFF13F08028F6DB6D1C2800C0B208280CDAB5F171
S3151FFF14005000C0B2FFF7AEFF0120FFF7ABFF102062
S3151FFF1410FFF7A8FF0026E9E770BD38B5002408E0EF
S3151FFF14200020FFF77BFF6D1C2800C0B28028F7DB6B
S3151FFF1430641C2000C0B208280CDAB4F15000C0B2F9
S3151FFF1440FFF790FF0120FFF78DFF1020FFF78AFFA1
S3151FFF14500025E9E731BD06E040F2375211004A1E6B
S3151FFF14600029FBD1401E0028F6D1704710B5040096
S3151FFF14702020FFF777FF2000C0B2FFF773FF10BDD5
S3151FFF148080B550F04000C0B2FFF76CFF01BD10B52D
S3151FFF149004008120FFF766FF2000C0B2FFF762FF3F
S3151FFF14A010BD10B504008D20FFF75CFF54F010042C
S3151FFF14B02000C0B2FFF756FF10BD80B550F0A00049
S3151FFF14C0C0B2FFF74FFF01BD80B550F0A400C0B2F9
S3151FFF14D0FFF748FF01BD80B550F0A600C0B2FFF76A
S3151FFF14E041FF01BD10B50400A820FFF73BFF2000F9
S3151FFF14F0C0B2FFF737FF10BD80B550F0AE00C0B2C8
S3151FFF1500FFF730FF01BD80B550F0C000C0B2FFF737
S3151FFF151029FF01BD10B50400D320FFF723FF2000CD
S3151FFF1520C0B2FFF71FFF10BD10B50400D520FFF790
S3151FFF153019FF2000C0B2FFF715FF10BD10B504003D
S3151FFF1540D920FFF70FFF2000C0B2FFF70BFF10BD1B
S3151FFF155010B50400DA20FFF705FF54F00204200040
S3151FFF1560C0B2FFF7FFFE10BD10B50400DB20FFF76B
S3151FFF1570F9FE2000C0B2FFF7F5FE10BD10B5FFF74D
S3151FFF1580A7FE0120DFF824130860DFF82843002099
S3151FFF159020603220FFF75FFF012020600020FFF74A
S3151FFF15A0ABFF8020FFF7C0FF3F20FFF79BFF002009
S3151FFF15B0FFF7B0FF0020FFF763FF0420FFF771FF60
S3151FFF15C00220FFF753FF0120FFF777FF0820FFF7E2
S3151FFF15D09AFF1020FFF7BCFFCF20FFF758FFF12020
S3151FFF15E0FFF7ACFF4020FFF7BFFF0020FFF76CFFA1
S3151FFF15F00020FFF770FF0120FFF77EFF0020FFF798
S3151FFF1600ECFE00210020FFF7D0FE10BD2DE9F843A9
S3151FFF161004000D00160000200020002714E0DFF84D
S3151FFF162098124A46D2B20620424301EB02004146B8
S3151FFF1630C9B2405CFFF772FE18F101084046C0B2FF
S3151FFF16400628ECDBA41D7F1C3800C0B2305C0028C7
S3151FFF165013D03800C0B2305CB0F120092000C0B2F1
S3151FFF16607F2801DB00246D1C2900C9B22000C0B2F0
S3151FFF1670FFF79BFE5FF00008E0E7BDE8F1832DE96A
S3151FFF1680F047040092460D00ADB2ED0889B208205F
S3151FFF169091FBF0F200FB12110E00002700E07F1CEA
S3151FFF16A03800290080B289B288422ED23900C9B2CA
S3151FFF16B00020FFF77AFE5FEAC7085FF000091BE00D
S3151FFF16C0C0B24008110089B211FA88F3514689B298
S3151FFF16D04B4304EB03014B469BB2C95CFF2901D168
S3151FFF16E050F08000521C110089B20829E8DBC0B2F6
S3151FFF16F0FFF714FE19F101094846514680B289B218
S3151FFF17008842CCD200200022EDE73900C9B2002063
S3151FFF1710FFF74BFEFF00002520E0C0B24008110077
S3151FFF172089B211FA87F3514689B24B4304EB030182
S3151FFF17302B009BB2C95CFF2901D150F08000521CC0
S3151FFF17401100330089B29BB29942E6D3C0B2D6F1DC
S3151FFF175008010841C0B2FFF7E1FD6D1C2800514685
S3151FFF176080B289B2884202D200200022E8E7BDE894
S3151FFF1770F0872DE9F04782460E0015005FF000093E
S3151FFF17800020300037005FF000085046002100F0B0
S3151FFF1790ABF903D25FF001089AF0004A504600F0FA
S3151FFF17A0B5F90400200000F0C3F90100504600F010
S3151FFF17B0CDF90100AA4605E0404800F007FA0100EF
S3151FFF17C0BAF1010ABAF1010FF6DA080000F09EF925
S3151FFF17D02A000DE0521E0A21B0FBF1F301FB130194
S3151FFF17E0303106F8091019F101090A21B0FBF1F092
S3151FFF17F0002801D0012100E00021012A01DB01237E
S3151FFF180000E00023C9B2DBB219430029E2D1002D44
S3151FFF181005D1202006F8090019F1010904E02E2041
S3151FFF182006F8090019F10109002C12D1302006F81C
S3151FFF1830090019F101090CE00A20B4FBF0F100FBC6
S3151FFF18401140303006F8090019F101090A20B4FBCF
S3151FFF1850F0F4002CF0D14FFA88F8B8F1010F04D13C
S3151FFF18602D2006F8090019F10109002006F80900C5
S3151FFF187006EB0900411E0DE03A78087842403A70A0
S3151FFF18800A78387842400A703A78087842403A70A8
S3151FFF1890491E7F1CC81B0128EEDA4846BDE8F087A4
S3151FFF18A020CBFF1F80F00F402410FE432010FE4366
S3151FFF18B01C10FE432810FE432839FF1F000020413E
S3151FFF18C0F0B585B004000D001000002269460E001A
S3151FFF18D0170000B200F0E6F93A003100FFF749FFA3
S3151FFF18E06A462900C9B22000C0B2FFF78FFE05B0B6
S3151FFF18F0F0BDFF00010049B2002908D4012210F0F4
S3151FFF19001F018A40654940B2400941F820207047B0
S3151FFF19100FB42DE9F8430A9C54F48074089F099D60
S3151FFF19209DF82C809DF82D900C9E5D48874203D312
S3151FFF193035215C48FFF7ECF94046C0B2022803DBAE
S3151FFF194036215848FFF7E4F94846C0B2022803DBA1
S3151FFF195037215448FFF7DCF95348874210D15349C3
S3151FFF196000205FFA88F8B8F1010F25D17A692A435B
S3151FFF19707A615FFA89F9B9F1010F1BD17D601EE00C
S3151FFF19804B48874202D14B490120EAE74A48874223
S3151FFF199002D14A490220E4E74948874202D1494911
S3151FFF19A00320DEE74848874202D148490420D8E78B
S3151FFF19B000201BE0BD6002E07A69AA437A6100221C
S3151FFF19C008E02B00D340DB0703D51300DBB241F83A
S3151FFF19D02340521C1300DBB2202BF2DB3100002900
S3151FFF19E003D03B49C0B241F820600120BDE8F20396
S3151FFF19F05DF814FB0FB410B5029C2948844203D32C
S3151FFF1A008A212848FFF784F92748844201D10020FD
S3151FFF1A100FE02748844201D101200AE0264884426D
S3151FFF1A2001D1022005E02648844201D1032000E0B0
S3151FFF1A300420573040B2FFF75DFF012010BC5DF851
S3151FFF1A4014FB80B52248006880475FF0FF302149AD
S3151FFF1A50086001BD80B51E48406880475FF0FF30B4
S3151FFF1A601D49086001BD80B51948806880475FF032
S3151FFF1A70FF301A49086001BD80B51548C068804709
S3151FFF1A805FF0FF301649086001BD80B51048006939
S3151FFF1A9080475FF0FF301349086001BD00E100E09A
S3151FFF1AA001F10F40D453FF1F00F00F400090044079
S3151FFF1AB040F00F4000A0044080F00F4000B00440EC
S3151FFF1AC0C0F00F4000C0044000F10F4000D004409B
S3151FFF1AD05059FF1FA0900440A0A00440A0B004408F
S3151FFF1AE0A0C00440A0D004404FF0807C1CEB400FE9
S3151FFF1AF094BF1CEB410F05E040EA010C1CEB0C0FDA
S3151FFF1B0001D28842704718BF8142704700180CD216
S3151FFF1B10010E7F3909D4D1F11F015DBFC00140F00E
S3151FFF1B200040C8406FF0000070470020704700005C
S3151FFF1B3000280AD0B0FA80F18840D1F19D01C9056E
S3151FFF1B40020672F1004241EB1020704790EA010F27
S3151FFF1B5040F1C08081F00041421A3CBF801A8918AC
S3151FFF1B604FF0004CC0F3C752FF2A24D0C1F3C7530F
S3151FFF1B7013B3D21AD2F1190327DD4CEA01214CFA0E
S3151FFF1B8003F321EA0303D140C20D4CEA002040189C
S3151FFF1B9034BF20EA0C004CEA5000D20553EA00631B
S3151FFF1BA073EB0C0C52EB1020420012F1807F38BFF3
S3151FFF1BB07047C00DC0057047490212BF9A4200EB1E
S3151FFF1BC05120F8E7D2F11703D9D57047FF2212EA42
S3151FFF1BD0D05C1DBF12EAD153944593422BE09C4420
S3151FFF1BE0D30780EA01021A4043EA002043EA012194
S3151FFF1BF0A1FB0030C04238BF40007CF17F010BDBE9
S3151FFF1C00FE294ADA5B0842EAC15153EA006373F1C0
S3151FFF1C10004C51EB10207047D1F1080CDCF120016D
S3151FFF1C202FDB5B0810FA01F10B4320FA0CF073F15F
S3151FFF1C3000415041704794451CBF02EAD15393425E
S3151FFF1C4080EA010202F000421DD0400019D0490070
S3151FFF1C5017D05BB9634514D00902B1FA81F39940D6
S3151FFF1C60BCEB030CC00140F00040C1E70002B0FA15
S3151FFF1C7080FC10FA0CF0B3EB0C0CC90141F00041CC
S3151FFF1C80B6E71000704740000AD0490008D010F190
S3151FFF1C90807F94BF11F1807F02E042F0FF407047C3
S3151FFF1CA0D0437047C2175040801AB0FA80F10AD04E
S3151FFF1CB08840D1F19D01D20742EAC151020672F156
S3151FFF1CC0004241EB1020704790EA010F7FF544AFAA
S3151FFF1CD081F00041431A4FF000423EBF5340C01AE6
S3151FFF1CE0C91800BFD3095FEAD05C13EB400F34BF9F
S3151FFF1CF0B3EB410F40E07CEBD1530CD342EA0121FA
S3151FFF1D0022D8D1EB402009D3400A28BF5FEA5001F2
S3151FFF1D1040EBCC507047401A15D04002B0FA80F204
S3151FFF1D20521C9040400A4FEA3C23B3EB026384BF29
S3151FFF1D3000EB730007E040F400001A16DB07C2F141
S3151FFF1D400102D04018437047182BFCDC31FA03F20F
S3151FFF1D5002FA03F3591A38BF42F00102D2EB4020B1
S3151FFF1D603CBF4000ACF1010C5FEACC5CC20572F1CF
S3151FFF1D7000414CEB5020704713EB400F0FD2C94267
S3151FFF1D8009D0ACEBD153022B03DB4902172BDDDD49
S3151FFF1D9070479143401AC042D5D10020704713EBBD
S3151FFF1DA0410FD0D36FF0000070470000010049B20A
S3151FFF1DB0002909D4012210F01F018A40DFF84415BC
S3151FFF1DC040B2400941F820207047010049B200295F
S3151FFF1DD00DD4012210F01F018A40DFF82C1540B2E7
S3151FFF1DE0400941F82020BFF34F8FBFF36F8F704716
S3151FFF1DF030B587B0DFF8144520685FF0FF302060ED
S3151FFF1E00DFF80C552878042834D103202870592071
S3151FFF1E10FFF7DBFF5FF400302060DFF8F814087868
S3151FFF1E20002805D0DFF8F004DFF8F024106004E087
S3151FFF1E30DFF8EC04DFF8E42410600878002802D0EE
S3151FFF1E400020087001E0012008700120DFF8D4147C
S3151FFF1E500870DFF8D404016851F001010160DFF853
S3151FFF1E60CC1484B068462C22FEF75CFF0FBC00F033
S3151FFF1E70E0FB04E05920FFF7A8FF0220287007B0F8
S3151FFF1E8030BD80B55920FFF7A0FF0120DFF8801472
S3151FFF1E900870DFF89C04016851F0010101605920A9
S3151FFF1EA0FFF784FF01BD80B5DFF8641408780128AA
S3151FFF1EB011D00020DFF87C241070087802281BD170
S3151FFF1EC0042008705FF0FF30DFF8401408605920C8
S3151FFF1ED0FFF76CFF10E0DFF85C24107800280BD1AA
S3151FFF1EE001201070042008705FF0FF30DFF81C140C
S3151FFF1EF008605920FFF75AFF01BD80B5DFF8381478
S3151FFF1F00DFF838040860002008734FF47F404860ED
S3151FFF1F100020886084B068461422FEF703FF0FBCBB
S3151FFF1F20FFF7F6FC01BD80B5DFF8141459200870C2
S3151FFF1F3005204860002088600020C86084B068467E
S3151FFF1F401422FEF7EFFE0FBC00F08DFCDFF8F41333
S3151FFF1F50DFF8F4030860002008735FF480204860F1
S3151FFF1F60DFF8E8038860DFF8E803086184B0684696
S3151FFF1F701422FEF7D7FE0FBCFFF7CAFC01BD80B5C3
S3151FFF1F80DFF8D013DFF8C00308605FF40030486046
S3151FFF1F9000200873DFF8C003886084B068461422E8
S3151FFF1FA0FEF7C0FE0FBCFFF7B3FC01BD00B587B040
S3151FFF1FB0E349002008700520486001208860012042
S3151FFF1FC0C86084B068461422FEF7ACFE0FBC00F053
S3151FFF1FD04AFCD64900200870332048704FF496609C
S3151FFF1FE0888001208860DD48C860CD488861012050
S3151FFF1FF0C883012081F82500D9488862012081F80E
S3151FFF2000240084B068462C22FEF78CFE0FBC00F01E
S3151FFF2010C2F907B000BD0000002006E000BF491C43
S3151FFF20200A0092B2642AF9DB401C010089B244F60A
S3151FFF20302062914201DA0021F2E7704780B500F076
S3151FFF2040B2FCFFF7E9FF8021122000F0B3FDFFF777
S3151FFF2050E3FF81210D2000F0ADFD0021112000F0CF
S3151FFF2060A9FD0321092000F0A5FDD0210C2000F0BA
S3151FFF2070A1FD4021122000F09DFD3F21172000F0FA
S3151FFF208099FD5021182000F095FD0321192000F01E
S3151FFF209091FD78211A2000F08DFD0021322000F0DE
S3151FFF20A089FD0A21A02000F085FDE021632000F0B5
S3151FFF20B081FDFF21AC2000F07DFD0C21652000F086
S3151FFF20C079FD0021662000F075FD0021672000F0D5
S3151FFF20D071FD1421292000F06DFD1E212C2000F01B
S3151FFF20E069FD00212A2000F065FD0C217E2000F0EE
S3151FFF20F061FD16217F2000F05DFD2A21802000F063
S3151FFF210059FD4E21812000F055FD6121822000F0EF
S3151FFF211051FD6F21832000F04DFD7B21842000F0B0
S3151FFF212049FD8621852000F045FD8E21862000F082
S3151FFF213041FD9721872000F03DFDA421882000F057
S3151FFF214039FDAF21892000F035FDC5218A2000F01A
S3151FFF215031FDD7218B2000F02DFDE8218C2000F0CB
S3151FFF216029FD20218D2000F025FD00214A2000F0AA
S3151FFF217021FD1321492000F01DFD0821472000F0F6
S3151FFF218019FD14214B2000F015FD17214C2000F0DF
S3151FFF219011FD0521462000F00DFD9921222000F09B
S3151FFF21A009FD0321232000F005FD0421A62000F0D1
S3151FFF21B001FD6C480188C9B29B2000F0FBFC6A48F1
S3151FFF21C00188C9B29C2000F0F5FC0E21AB2000F060
S3151FFF21D0F1FC11219E2000F0EDFC02219F2000F053
S3151FFF21E0E9FC01BD38B4030060480088ADF8000064
S3151FFF21F038E00C78491C68462500EDB2ED11455DA8
S3151FFF22001D705B1C2500EDB2C5F38015455D1D7066
S3151FFF22105B1C2500EDB2C5F34015455D1D705B1CAC
S3151FFF22202500EDB2C5F30015455D1D705B1C25002E
S3151FFF2230EDB2C5F3C005455D1D705B1C2500EDB2F4
S3151FFF2240C5F38005455D1D705B1C2500EDB2C5F30B
S3151FFF22504005455D1D705B1CE4B214F00104005D73
S3151FFF226018705B1C1000421E0028C2D131BC70477C
S3151FFF227080B50A00C0B2002805D092B226493C4855
S3151FFF2280FFF7B0FF04E092B225493948FFF7AAFFCF
S3151FFF229001BD80B5FFF7D2FEFFF745FEFFF76FFEC5
S3151FFF22A0FFF72BFEFFF782FE00208DF800000D22A1
S3151FFF22B00121684600F0B7FC01BD38B5002014E0C8
S3151FFF22C050222C4B10FB02F423440C0024B2284D42
S3151FFF22D010FB02F22A440D002DB2525D1A55491CFE
S3151FFF22E00A0012B2502AEBDB401C010009B23C293F
S3151FFF22F001DA0021F4E750223C211E48FFF7BFF900
S3151FFF230031BD000000E100E080E100E0A0B0044025
S3151FFF2310EA56FF1FC6FAFF1F4CD0FF1F1090004043
S3151FFF23209CCBFF1FC5FAFF1F0C80004070CBFF1F02
S3151FFF233024800040C7FAFF1F34CBFF1FC0F00F409A
S3151FFF23404057FF1F48CBFF1F80F00F4013000900A8
S3151FFF2350F11DFF1F5CCBFF1F03000200D1F00F40D3
S3151FFF2360831EFF1FE656FF1FE456FF1FF218FF1FB0
S3151FFF2370FCD4FF1FBCE7FF1F010049B2002909D488
S3151FFF2380012210F01F018A40DFF8FC1340B24009FB
S3151FFF239041F8202070470FB42DE9F04F85B09DF807
S3151FFF23A038509DF839609DF83A008DF80000BDF84A
S3151FFF23B03C7010980490119802909DF84880BDF9C3
S3151FFF23C04A00ADF8040013980390149C9DF854908F
S3151FFF23D0BDF95600ADF80200DDF858A09DF85CB0B8
S3151FFF23E02800C0B2102804DB3B21DFF8A003FEF74D
S3151FFF23F08FFC3000C0B2402804DB3C21DFF88C0382
S3151FFF2400FEF786FC380080B2B0F5004F04DB3D2196
S3151FFF2410DFF87803FEF77CFC0298002804D13E21E3
S3151FFF2420DFF86803FEF774FC4046C0B2032808DBDB
S3151FFF24304046C0B2042804D03F21DFF85003FEF701
S3151FFF244067FC002C04D14021DFF84003FEF760FC38
S3151FFF24504846C0B2032807DB4846C0B2042803D04C
S3151FFF24604121CA48FEF754FCC948016851F00201D1
S3151FFF24700160C848016851F002010160C648016842
S3151FFF24800122AA4091430160C44916F03F06280066
S3151FFF2490C0B20E549DF80000012808D12800C0B213
S3151FFF24A0085C50F040002A00D2B2885407E028008B
S3151FFF24B0C0B2085C10F0BF002A00D2B28854B84AD7
S3151FFF24C002982B00DBB25B01D050BDF804002B0036
S3151FFF24D0DBB25B01134498805FFA88F85FEA08282E
S3151FFF24E018F4E0682800C0B240011044A0F8068027
S3151FFF24F003982B00DBB25B011344D8602800C0B2E0
S3151FFF2500400110440461BDF802002B00DBB25B01E2
S3151FFF2510134498822800C0B240011044C0885FFA56
S3151FFF252089F919F0070959EA00092800C0B24001C5
S3151FFF25301044A0F806902800C0B240011044C0F80E
S3151FFF254018A07804400C2B00DBB25B011344D88222
S3151FFF25507F047F0C2800C0B240011044C783049834
S3151FFF25602B00DBB25B011344986000202B00DBB20C
S3151FFF25705B01134498831898002815D09DF85D00BA
S3151FFF2580012811D12800C0B240011044808B50F0A2
S3151FFF259002002B00DBB25B01134498831898814B13
S3151FFF25A02C00E4B243F824001898002815D09DF894
S3151FFF25B05E00012811D12800C0B240011044808B54
S3151FFF25C050F004002B00DBB25B011344988318986D
S3151FFF25D0744B2C00E4B243F824005FFA8BFBBBF16C
S3151FFF25E0010F0CD12800C0B240011044808B50F060
S3151FFF25F008002B00DBB25B011A4490830CE0280016
S3151FFF2600C0B240011044838B4FF6F770034028007A
S3151FFF2610C0B24001104483832800C0B2085C50F04B
S3151FFF26208000EDB24855012005B0BDE8F00F5DF8FB
S3151FFF263014FB0FB480B59DF9080040B2FFF79CFE4F
S3151FFF2640012002BC5DF814FB80B556480068804721
S3151FFF26505548016851F00101016001BD80B5514820
S3151FFF2660406880475048016851F00201016001BD73
S3151FFF267080B54C48806880474B48016851F004017C
S3151FFF2680016001BD80B54748C0688047464801685D
S3151FFF269051F00801016001BD80B5424800698047BE
S3151FFF26A04148016851F01001016001BD80B53D48E9
S3151FFF26B0406980473C48016851F02001016001BD18
S3151FFF26C080B53848806980473748016851F0400117
S3151FFF26D0016001BD80B53348C06980473248016834
S3151FFF26E051F08001016001BD80B52E48006A804709
S3151FFF26F02D48016851F48071016001BD80B52948DD
S3151FFF2700406A80472848016851F40071016001BD86
S3151FFF271080B52448806A80472348016851F001012C
S3151FFF2720016001BD80B51F48C06A80471E4801680A
S3151FFF273051F40061016001BD80B51A48006B8047E7
S3151FFF27401948016851F48051016001BD80B51548D4
S3151FFF2750406B80471448016851F40051016001BD69
S3151FFF276080B51048806B80470F48016851F4804140
S3151FFF2770016001BD80B50B48C06B80470A480168E1
S3151FFF278051F40041016001BD00E100E05453FF1FFA
S3151FFF27903C800440408004400C80004000100240F3
S3151FFF27A000900040F458FF1F2480004010F00700E0
S3151FFF27B06F4B1A684FF6FF010A406E4951EA002117
S3151FFF27C00A431A607047010049B2002908D4012243
S3151FFF27D010F01F018A40684940B2400941F8202086
S3151FFF27E07047010049B200290CD4012210F01F01C6
S3151FFF27F08A40624940B2400941F82020BFF34F8FFC
S3151FFF2800BFF36F8F7047020052B2002A04D409012B
S3151FFF28105B4A40B2115407E009015A4A40B210F011
S3151FFF28200F00104400F8041C704710B410F0070087
S3151FFF2830D0F10703052B01D3042301E0D0F10703D2
S3151FFF2840041D072C01D2002000E0C01E012414FA2C
S3151FFF285003F35B1E1940814014FA00F0401E10401F
S3151FFF2860084310BC70470FB42DE9F84301269DF9A5
S3151FFF28702070DDF824800A9D0B9C9DF83090B8F1DF
S3151FFF2880070F0FD0B8F1060F0CD0B8F1050F09D0FF
S3151FFF2890B8F1040F06D0B8F1030F03D03A213A4817
S3151FFF28A0FEF736FA102D03D33B213748FEF730FAD2
S3151FFF28B0102C03D33C213448FEF72AFAB8F1030F35
S3151FFF28C040D048D3B8F1050F2AD032D3B8F1070F3E
S3151FFF28D001D01CD33FE00720FFF768FF002D01D172
S3151FFF28E0102C00D30026220029004046FFF79DFF2C
S3151FFF28F00100380040B2FFF786FF5FFA89F9B9F189
S3151FFF2900010F2AD1380040B2FFF75DFF29E00620ED
S3151FFF2910FFF74CFF022D01D2082C00D30026E2E75A
S3151FFF29200520FFF743FF042D01D2042C00D30026F9
S3151FFF2930D9E70420FFF73AFF082D01D2022C00D357
S3151FFF29400026D0E70320FFF731FF102D01D2002C01
S3151FFF295000D00026C7E7002005E0380040B2FFF78A
S3151FFF296040FF3000C0B2BDE8F2035DF814FB000064
S3151FFF29700CED00E00000FA0500E100E080E100E059
S3151FFF298000E400E018ED00E01454FF1F01B404E05B
S3151FFF2990BDF80000401EADF80000BDF8000000287E
S3151FFF29A0F6D101B0704780B586B07D4801904FF4D0
S3151FFF29B04050029001208DF8100001208DF8110064
S3151FFF29C00020039001A984B068461422FEF7AAF9D6
S3151FFF29D00FBCFEF79DFF07B000BDF8B5714C012078
S3151FFF29E02060714E012030604FF4C870FFF7CEFF95
S3151FFF29F06E4D002028606E4F3868002803D10120D6
S3151FFF2A002860002011E001202860002020604FF47D
S3151FFF2A10C870FFF7BBFF002030603868002803D05F
S3151FFF2A2001202860002000E00120F2BD38B55E4C72
S3151FFF2A30002020605B4D002028604FF4C870FFF711
S3151FFF2A40A5FF012020604FF4C870FFF79FFF0120ED
S3151FFF2A5028604FF4C870FFF799FF31BD10B5524C70
S3151FFF2A60002020604FF4C870FFF790FF00204D49EC
S3151FFF2A7008604FF4C870FFF789FF012020604FF4ED
S3151FFF2A80C870FFF783FF002020604FF4C870FFF761
S3151FFF2A907DFF10BD10B5444C002020604FF4C87059
S3151FFF2AA0FFF774FF01203F4908604FF4C870FFF717
S3151FFF2AB06DFF012020604FF4C870FFF767FF0020EE
S3151FFF2AC020604FF4C870FFF761FF10BD38B5364C55
S3151FFF2AD000202060354D002028604FF4C870FFF797
S3151FFF2AE055FF012020604FF4C870FFF74FFF304896
S3151FFF2AF00068002805D001202860002020600020E4
S3151FFF2B0004E00120286000202060012032BD70B53F
S3151FFF2B100400082516E000202249086004E020066D
S3151FFF2B20F9D501201F49086064004FF4C870FFF7ED
S3151FFF2B302DFF1D4E012030604FF4C870FFF726FF93
S3151FFF2B40002030602800451EC0B20028E7D170BDA7
S3151FFF2B50F8B508240026154D0020286013E07600DF
S3151FFF2B60114F002038604FF4C870FFF70FFF012089
S3151FFF2B7038604FF4C870FFF709FF0D48006800283B
S3151FFF2B8001D056F001062000441EC0B20028E6D130
S3151FFF2B9001202860002004490860F6B23000F2BD0C
S3151FFF2BA000F00F403400FE433000FE43B402FE43E5
S3151FFF2BB03402FE4370B504000D0000262900C9B27A
S3151FFF2BC0200080B200F00BF8002806D1761C3000DB
S3151FFF2BD0C0B21428F2D1002000E0012070BD38B525
S3151FFF2BE004000D00FFF7F9FE002801D1002019E0B0
S3151FFF2BF04220FFF78CFFFFF769FF002803D1FFF77E
S3151FFF2C0015FF00200EE02000C0B2FFF780FFFFF781
S3151FFF2C105DFF2800C0B2FFF77AFFFFF757FFFFF7E9
S3151FFF2C2005FF012032BDF8B504000D001600002771
S3151FFF2C303200D2B2290089B2200000F00BF800281B
S3151FFF2C4006D17F1C3800C0B21E28F1D1002000E03C
S3151FFF2C500120F2BD70B504000D001600FFF7BDFE83
S3151FFF2C60002801D1002038E04220FFF750FFFFF771
S3151FFF2C702DFF002803D1FFF7D9FE00202DE03000DE
S3151FFF2C80C0B2FFF744FFFFF721FFFFF7CFFEFFF7A6
S3151FFF2C90A4FE002801D100201FE04320FFF737FFC6
S3151FFF2CA0FFF714FF002811D1FFF7C0FE002014E025
S3151FFF2CB0FFF7D4FE08E0FFF74BFF2070280080B216
S3151FFF2CC00128F5D1FFF7E6FE641C6D1E280080B2B2
S3151FFF2CD00028F0D1FFF7AAFE012070BD0FB4F0B593
S3151FFF2CE0059A06989DF81C109DF81D70089B099C58
S3151FFF2CF0002801D14FF41650DFF80C54AA4241D1D8
S3151FFF2D000025DFF808643668DFF804C4DCF800E046
S3151FFF2D105EF4806ECCF800E08C465FFA8CFCBCF14B
S3151FFF2D20020F06D14FF40071DFF8E8C3CCF800108D
S3151FFF2D300FE0C9B20E2906D14FF44071DFF8D8C391
S3151FFF2D40CCF8001005E04FF44071DFF8D0C3CCF884
S3151FFF2D5000103900C9B2012905D14FF40071DFF800
S3151FFF2D60C0733960ECE0FFB20F2F05D14FF44071EE
S3151FFF2D70DFF8B0733960E3E04FF44071DFF8A873F3
S3151FFF2D803960DDE0DFF8A453AA422AD10125DFF817
S3151FFF2D907C633668DFF878C3DCF800E05EF4006E0C
S3151FFF2DA0CCF800E0C9B27C2906D14FF44071DFF899
S3151FFF2DB080C3CCF8001005E04FF44071DFF874C3F1
S3151FFF2DC0CCF80010FFB27D2F05D14FF44071DFF80D
S3151FFF2DD068733960B4E04FF44071DFF86073396090
S3151FFF2DE0AEE0DFF85C532E68DFF85853AA420FD1C7
S3151FFF2DF00225DFF81C130F6857F480570F604FF437
S3151FFF2E004071DFF844733960DFF84073396097E02C
S3151FFF2E10DFF83C53AA423ED10325DFF8F4C2DCF8A4
S3151FFF2E2000E05EF4005ECCF800E08C465FFA8CFC97
S3151FFF2E30BCF1800F06D14FF44071DFF818C3CCF8F1
S3151FFF2E4000100FE0C9B22B2906D14FF44071DFF8EE
S3151FFF2E5008C3CCF8001005E04FF44071DFF8FCC241
S3151FFF2E60CCF800103900C9B2812905D14FF4407142
S3151FFF2E70DFF8EC72396063E0FFB22A2F05D14FF4FA
S3151FFF2E804071DFF8E07239605AE04FF44071DFF8A6
S3151FFF2E90D872396054E0DFF8D452AA4227D10425ED
S3151FFF2EA0DFF8CCC2DCF800E05EF4806ECCF800E001
S3151FFF2EB0C9B2942906D14FF44071DFF8B8C2CCF8D6
S3151FFF2EC0001005E04FF44071DFF8ACC2CCF80010DC
S3151FFF2ED0FFB2952F05D14FF44071DFF8A07239600D
S3151FFF2EE02EE04FF44071DFF89872396028E0052510
S3151FFF2EF0DFF89022DFF878C2DCF800E05EF4006EA0
S3151FFF2F00CCF800E0C9B2652906D14FF44071DFF84E
S3151FFF2F1078C2CCF8001005E04FF44071DFF86CC2A1
S3151FFF2F20CCF80010FFB2642F05D14FF44071DFF8C4
S3151FFF2F306072396004E04FF44071DFF858723960F0
S3151FFF2F40D17811F0F301D170002191700101B6FB09
S3151FFF2F50F1F792F800C01CF0E00CC7F3042151EA09
S3151FFF2F600C0C82F800C0577071010001B1FBF0F025
S3151FFF2F70BFB2B0EB4710917A11F0E00110F01F00BE
S3151FFF2F80084390729DF81E0001280DD118000028D6
S3151FFF2F900AD0D07850F02000D070DFF8FC0129004E
S3151FFF2FA0C9B240F8213003E0D07810F0DF00D070AF
S3151FFF2FB09DF81F0001280CD12000002809D0D078CA
S3151FFF2FC050F08000D070DFF8D401EDB240F82540F5
S3151FFF2FD003E0D07810F07F00D070D07850F00C004F
S3151FFF2FE0D070F0BC5DF814FB02791206FCD5C171D7
S3151FFF2FF0704710B56A4C2078800606D56948007859
S3151FFF3000800602D56448006880472078000606D5EB
S3151FFF301064480078000602D560480068804710BDE7
S3151FFF302010B5614C2078800606D56048007880066B
S3151FFF303002D55948406880472078000606D55B4869
S3151FFF30400078000602D555484068804710BD10B569
S3151FFF3050574C2078800606D556480078800602D53D
S3151FFF30604D48806880472078000606D5514800786E
S3151FFF3070000602D549488068804710BD10B54E4CE3
S3151FFF30802078800606D54D480078800602D542482F
S3151FFF3090C06880472078000606D548480078000696
S3151FFF30A002D53E48C068804710BD10B5444C2078F6
S3151FFF30B0800606D543480078800602D53648006944
S3151FFF30C080472078000606D53E480078000602D5C1
S3151FFF30D032480069804710BD10B53B4C20788006EB
S3151FFF30E006D53A480078800602D52B4840698047A7
S3151FFF30F02078000606D535480078000602D52748F2
S3151FFF31004069804710BD000000A00640CC56FF1F38
S3151FFF311034800440089004403890044044A0044083
S3151FFF3120049004403C90044040A0044000B0064079
S3151FFF313000D0044010B0044004D004400CB004403B
S3151FFF3140D056FF1F00C006400CC0044008C00440F5
S3151FFF315000D0064010D004402CA0044044B00440C9
S3151FFF316014D0044028A0044040B0044000A00E40E5
S3151FFF31702880044060D004403CB0044064D0044023
S3151FFF318038B0044000B00E4024C0044020D0044095
S3151FFF319020C0044024D00440E459FF1FFC59FF1FE1
S3151FFF31A004A0064003A0064004B0064003B0064035
S3151FFF31B004C0064003C0064004D0064003D00640A5
S3151FFF31C004A00E4003A00E4004B00E4003B00E40F5
S3151FFF31D070B5DFF84C030178491C0170017801298E
S3151FFF31E016D1002010E05021DFF8383301FB00F421
S3151FFF31F02344DFF8344301FB00F12144895C9954D2
S3151FFF3200521C502AEFDB401C3C284DDA0022F8E700
S3151FFF32100178022916D1002110E05020DFF80C3368
S3151FFF322000FB01F42344DFF8004300FB01F02044B9
S3151FFF3230805C9854521C502AEFDB491C3C2933DA19
S3151FFF32400022F8E70178032914D100210EE0502050
S3151FFF3250B74B00FB01F42344B34C00FB01F02044A2
S3151FFF3260805C9854521C502AF1DB491C3C291BDAFF
S3151FFF32700022F8E70178042916D100220EE050211B
S3151FFF3280AC4C01FB02F52C44A74D01FB02F129446F
S3151FFF3290C95CE1545B1C3C2BF1DB521C3C2A01DA57
S3151FFF32A00023F8E700210170002120E05023A248E8
S3151FFF32B003FB01F404449B4803FB01F52844855C8B
S3151FFF32C09A4803FB01F63044805C0540984803FB90
S3151FFF32D001F63044805C0540964803FB01F3184412
S3151FFF32E0805C0540A554521C502ADFDB491C3C2934
S3151FFF32F001DA0022F8E7002120E050238F4803FB65
S3151FFF330001F40444874803FB01F52844855C87487D
S3151FFF331003FB01F63044805C0543854803FB01F63A
S3151FFF33203044805C0543834803FB01F31844805CEC
S3151FFF33300543A554521C502ADFDB491C3C2901DAE1
S3151FFF33400022F8E7002418E05021774801FB04F21A
S3151FFF335000EB0206794801FB04F21044405D764AF2
S3151FFF336001FB04F11144495D401A00B200F0F2F867
S3151FFF337070556D1C502DE7DB641C3C2C01DA0025B4
S3151FFF3380F8E76F480168491C016001206D49086015
S3151FFF339000F001F870BDF0B5A3B014A83C2100F0F2
S3151FFF33A0E1F86846502100F0DDF800206421642211
S3151FFF33B064246425002310E05B4F5FF0500C0CFB69
S3151FFF33C003FC6744BF5D652F00DB401C761C502E38
S3151FFF33D0F2DB14AEF05400205B1C3C2B01DA0026F7
S3151FFF33E0F5E7002310E0504F5FF0500C0CFB06FC77
S3151FFF33F06744FF5C652F00DB401C761C3C2EF2DB0F
S3151FFF34006E46F05400205B1C502B01DA0026F5E7B1
S3151FFF341000231AE03B2B17D1F05C002814D01A00AB
S3151FFF342012E014AEF05C002805D114A818444078AA
S3151FFF3430002800D0591CF05C0028EBD014A81844B4
S3151FFF344040780028E6D11A005B1C3B2BE9DB0023E3
S3151FFF345024E04F2B21D1F05C00281ED01D001CE05D
S3151FFF34606E46F05C00280AD168461844407800284B
S3151FFF347005D0684618448078002800D05C1CF05C95
S3151FFF34800028E6D16846184440780028E1D06846F0
S3151FFF3490184480780028DCD01D005B1C4E2BDFDB19
S3151FFF34A0642932D0642A30D0642C2ED0642D2CD0C0
S3151FFF34B00120254B1860914202D12448016009E083
S3151FFF34C05118080000B200F045F8022190FBF1F0F9
S3151FFF34D01E490860AC4202D11D4804601EE0281930
S3151FFF34E000B200F037F8022190FBF1F0184908608F
S3151FFF34F0220012B205215020FEF7E2F92A0012B26E
S3151FFF350005216420FEF7DCF908E000200E4908605C
S3151FFF351000200E49086000200D49086023B0F0BD4A
S3151FFF3520C1FAFF1F185AFF1FFCD4FF1FD86CFF1FBE
S3151FFF3530987FFF1F5892FF1F18A5FF1FD8B7FF1FA2
S3151FFF35409CCAFF1F98CAFF1FA4CAFF1FA8CAFF1F37
S3151FFF3550ACCAFF1F010009B2012901DA00B24042BE
S3151FFF356000B27047002200F001B8000000B500BF8F
S3151FFF3570130096469446103928BFA0E80C50FAD878
S3151FFF35805FEA417C28BF0CC048BF40F8042BC90720
S3151FFF359028BF20F8022B48BF00F8012B00BD0000F3
S3151FFF35A01FB5C049C04C0C600120087143F6982017
S3151FFF35B0886084B068461C22FDF7B4FB0FBCFCF77E
S3151FFF35C031FF282000903D23002200212000FCF719
S3151FFF35D0B4FF282000903E23002201212000FCF784
S3151FFF35E0ACFF282000903F23002202212000FCF77A
S3151FFF35F0A4FF282000904023002203212000FCF770
S3151FFF36009CFF282000906323002207212000FCF740
S3151FFF361094FF282000906223002206212000FCF73A
S3151FFF36208CFF282000906123002205212000FCF734
S3151FFF363084FF282000906023002204212000FCF72E
S3151FFF36407CFF1FBD38B5994C2068002811D440F662
S3151FFF3650B8302168814200DB2060934D0022022192
S3151FFF36602800FCF7A0FF226803212800FCF79BFF19
S3151FFF367011E020688E49884201DA8E4820608A4D04
S3151FFF36802268524202212800FCF78DFF00220321E8
S3151FFF36902800FCF788FF884C2068002811D440F6C5
S3151FFF36A0B8302168814200DB20607F4D0022012157
S3151FFF36B02800FCF778FF226800212800FCF773FF1C
S3151FFF36C011E020687A49884201DA7A482060764DF0
S3151FFF36D02268524201212800FCF765FF00220021C4
S3151FFF36E02800FCF760FF754C2068002811D440F6B0
S3151FFF36F0B8302168814200DB20606B4D22680621AE
S3151FFF37002800FCF750FF002207212800FCF74BFF7C
S3151FFF371011E020686649884201DA66482060624DDB
S3151FFF3720002206212800FCF73EFF2268524207218E
S3151FFF37302800FCF738FF624C2068002811D440F69A
S3151FFF3740B8302168814200DB2060574D2268052172
S3151FFF37502800FCF728FF002204212800FCF723FF7F
S3151FFF376011E020685249884201DA524820604E4DC7
S3151FFF3770002205212800FCF716FF2268524204216A
S3151FFF37802800FCF710FF31BD2DE9F0410D00002188
S3151FFF379000214C4C00B2FEF785FA01002800FEF708
S3151FFF37A0D5F92060484D20682968FEF7CFF901003B
S3151FFF37B02768464E46480068FEF708FA3168FEF747
S3151FFF37C083FA8046434800683900FEF7FFF94146F2
S3151FFF37D0FEF77AFA3060404A3068106010683F493A
S3151FFF37E000F090F802D83E48106005E03D4910688A
S3151FFF37F0FEF77AF900D2116028683B4908602068F6
S3151FFF380028601068BDE8F08130B400220022401AFC
S3151FFF38103649374BB3F9003013FB00F3354CB4F978
S3151FFF3820004005002DB212B2AA1A02FB04320A800B
S3151FFF383040F2DC50B1F90020824201DB088006E02E
S3151FFF3840B1F900002C4A904201DA2C480880B1F9E1
S3151FFF3850000030BC704730B400220022401A2849AE
S3151FFF3860234BB3F9003013FB00F3224CB4F900408E
S3151FFF387005002DB212B2AA1A02FB04320A8040F2C9
S3151FFF3880DC50B1F90020824201DB088006E0B1F966
S3151FFF38900000194A904201DA18480880B1F9000062
S3151FFF38A030BC7047ECCAFF1F0080034094FAFF1F0E
S3151FFF38B049F4FFFF48F4FFFF98FAFF1FA0FAFF1F07
S3151FFF38C09CFAFF1F0CCBFF1F10CBFF1F14CBFF1F35
S3151FFF38D0DC56FF1F08CBFF1F1CCBFF1F01803B457D
S3151FFF38E000803B4500803BC518CBFF1FB8FAFF1F63
S3151FFF38F0BAFAFF1FE856FF1F25FAFFFF24FAFFFF3D
S3151FFF3900B4FAFF1F4FF0807C1CEB400F94BF1CEBDC
S3151FFF3910410F05E040EA010C1CEB0C0F01D281425F
S3151FFF3920704718BF88427047000000000000000064
S3151FFF3930002F000000000700070000147F147F14EC
S3151FFF394000242A7F2A120062640813230036495572
S3151FFF3950225000000503000000001C22410000004A
S3151FFF396041221C000014083E08140008083E0808E0
S3151FFF3970000000A06000000808080808000060603B
S3151FFF39800000002010080402003E5149453E00007A
S3151FFF3990427F4000004261514946002141454B315C
S3151FFF39A0001814127F10002745454539003C4A4928
S3151FFF39B0493000017109050300364949493600069A
S3151FFF39C04949291E00003636000000005636000002
S3151FFF39D0000814224100001414141414000041227D
S3151FFF39E0140800020151090600324959513E007C55
S3151FFF39F01211127C007F49494936003E414141223F
S3151FFF3A00007F4141221C007F49494941007F090927
S3151FFF3A100901003E4149497A007F0808087F0000D7
S3151FFF3A20417F4100002040413F01007F0814224192
S3151FFF3A30007F40404040007F020C027F007F04084A
S3151FFF3A40107F003E4141413E007F09090906003EA6
S3151FFF3A504151215E007F09192946004649494931CF
S3151FFF3A600001017F0101003F4040403F001F2040F2
S3151FFF3A70201F003F4038403F0063140814630007B0
S3151FFF3A800870080700615149454300007F41410007
S3151FFF3A9000552A552A55000041417F0000040201A7
S3151FFF3AA00204004040404040000001020400002085
S3151FFF3AB054545478007F48444438003844444420C3
S3151FFF3AC000384444487F00385454541800087E0970
S3151FFF3AD001020018A4A4A47C007F08040478000038
S3151FFF3AE0447D4000004080847D00007F10284400F5
S3151FFF3AF00000417F4000007C04180478007C080406
S3151FFF3B00047800384444443800FC24242418001841
S3151FFF3B10242418FC007C080404080048545454202D
S3151FFF3B2000043F444020003C4040207C001C2040B6
S3151FFF3B30201C003C4030403C004428102844001CF9
S3151FFF3B40A0A0A07C004464544C44141414141414F1
S3151FFF3B50F0B4002079497A4A0B7803204343D35C9C
S3151FFF3B605B007848006803430C78032044431355D2
S3151FFF3B700B780320434313440C780320444302EB83
S3151FFF3B800400447864007048006804435C700B7837
S3151FFF3B900320434313440C780320444302EB0400E2
S3151FFF3BA0847864006948006804439C70002360E0C2
S3151FFF3BB00C780320444302EB04001C00E4B2005DB3
S3151FFF3BC010F0070007281FD1614C0D7803204543CE
S3151FFF3BD004EB05001C00E4B20125055514E00C7823
S3151FFF3BE00320444302EB04001C00E4B2005D10F007
S3151FFF3BF0070FDDD1564C0D780320454304EB050017
S3151FFF3C001C00E4B200250555524D514C0E7803207A
S3151FFF3C10464305EB06001E00F6B2865D0F780320AE
S3151FFF3C20474304EB07001F00FFB2C05D86421FD04C
S3151FFF3C300E780320464305EB06001E00F6B2805D95
S3151FFF3C40012806D10878032606FB0030401C424E8A
S3151FFF3C5030700E780320464335441E00F6B20F78A8
S3151FFF3C600320474304EB07001C00E4B2005DA85581
S3151FFF3C705B1C1800C0B20328B1DB0878022803DBE0
S3151FFF3C8000200870087803E008780878401C087041
S3151FFF3C900878002803D0022815D00AD31DE001207B
S3151FFF3CA02E49086000202E49086000202D49086014
S3151FFF3CB013E00020294908600120294908600020D8
S3151FFF3CC02849086009E0002024490860002024498C
S3151FFF3CD00860012023490860FFE7F0BC704738B52D
S3151FFF3CE0214C224D25600020A0600020607301201B
S3151FFF3CF0207338206060210084B068461422FDF7C8
S3151FFF3D0011F80FBCFDF704FE25600020207302206B
S3151FFF3D10A06007206060210084B068461422FDF76B
S3151FFF3D2001F80FBCFDF7F4FD01200C4908600020C8
S3151FFF3D300B49086000200B49086031BDC3FAFF1FFE
S3151FFF3D40D0CAFF1F0022FE430422FE430822FE4362
S3151FFF3D50C4CAFF1FDCCAFF1FC2FAFF1F0C20FE4388
S3151FFF3D601020FE431420FE43B0CAFF1F00F10F4071
S3151FFF3D7010B5774C2068002804D100F01EF80020EC
S3151FFF3D80744908702068012805D100F071F80020DA
S3151FFF3D907049087010E02068022805D100F0A1F8CD
S3151FFF3DA000206C49087007E02068032804D100F043
S3151FFF3DB098F807206749087010BD10B5664C206834
S3151FFF3DC0012803D1FEF779FA00202060634CB4F96E
S3151FFF3DD00000020012B204215020FDF771FD5D485D
S3151FFF3DE0007801280DD042D303281AD00CD30528FB
S3151FFF3DF027D01ED307282DD024D3092837D02AD35F
S3151FFF3E0035E0FDF70AFB32E055490878012802D154
S3151FFF3E100020087004E00878002801D101200870EF
S3151FFF3E2025E050490878002802D101200870FFE7D6
S3151FFF3E301DE02088401D208021889C20FEF7BAFEAA
S3151FFF3E4015E014E02088401F208021889C20FEF764
S3151FFF3E50B1FE0CE00BE03E480168491E0160016898
S3151FFF3E60002901D502210160FDF7D7FAFFE710BD33
S3151FFF3E7080B5022204210020FDF722FD3548007878
S3151FFF3E8001280DD02CD303280ED00CD305280DD017
S3151FFF3E900BD307280CD00AD3092816D009D31FE046
S3151FFF3EA0FDF7BBFA1CE01BE01AE019E018E017E06C
S3151FFF3EB016E027480168491E01600168002901D5E0
S3151FFF3EC002210160FDF7A9FA0AE021480168491C92
S3151FFF3ED001600168032901DB00210160FDF79DFADF
S3151FFF3EE001BD80B5032204210020FDF7E9FC194817
S3151FFF3EF0007801280DD02AD303280CD00AD3052812
S3151FFF3F000BD009D307280AD008D3092814D007D303
S3151FFF3F101DE01CE01BE01AE019E018E017E016E0B1
S3151FFF3F200B480168491E01600168002901D502215E
S3151FFF3F300160FDF772FA0AE005480168491C016036
S3151FFF3F400168032901DB00210160FDF766FA01BD48
S3151FFF3F50E8CAFF1FC2FAFF1F98CAFF1FE456FF1FBB
S3151FFF3F60EB56FF1FC4FAFF1F0A00D2B2202A06DA3A
S3151FFF3F70026B012313FA01F11143016305E0C26AC4
S3151FFF3F80012320398B401A43C26270470A00D2B2FF
S3151FFF3F90202A04DA006BC84010F0010004E0C06A53
S3151FFF3FA02039C84010F00100C0B2704738B5050070
S3151FFF3FB00C002100C9B22800FFF7E8FF002821D017
S3151FFF3FC02100C9B22800FFF7CFFF584885420BD102
S3151FFF3FD058492000C0B251F82000002812D0E4B281
S3151FFF3FE051F8240080470DE0514885420AD15249B6
S3151FFF3FF02000C0B251F82000002803D0E4B251F8C8
S3151FFF40002400804731BD38B504000D002900C9B211
S3151FFF40102000FFF7BBFF012813D14448844211D16B
S3151FFF402044492800C0B251F82000002804D02800B8
S3151FFF4030C0B251F8200080472900C9B22000FFF700
S3151FFF404093FF31BD3A4884420CD13B492800C0B289
S3151FFF405051F820000028EFD02800C0B251F82000E9
S3151FFF40608047E9E7EDE710B5002426E02000C0B240
S3151FFF407000011044007A01281ED12100C9B2200079
S3151FFF4080C0B200011058FFF7BEFF15E02B4A2000F4
S3151FFF4090C0B20001105800280ED02000C0B2000188
S3151FFF40A01044007A0228E1D12100C9B22000C0B214
S3151FFF40B000011058FFF77AFF641C2000C0B21028BA
S3151FFF40C0E4DB10BD80B5FFF7CEFF01BD04201C4901
S3151FFF40D0086070471A490868820700D5086070474D
S3151FFF40E05FF400301649086070475FF4803014494B
S3151FFF40F00860704770477047704780B5FFF7B3FF7B
S3151FFF410001BD04200F49086070470E4908688207E2
S3151FFF411000D5086070475FF400300A490860704792
S3151FFF41205FF4803007490860704700000040024077
S3151FFF413000400A405C58FF1F9C58FF1F5C57FF1F1C
S3151FFF41402040024020400A407047704770470000DA
S3151FFF415080B500F069F800F01BF800F003F800F0D7
S3151FFF41604DF801BD1FB56549654C0C6004200871EC
S3151FFF41700820887484B068461C22FCF7D3FD0FBC49
S3151FFF4180FCF750F9332232212000FCF738FA1FBD06
S3151FFF419038B55C4C5C4D2560002020730320A06062
S3151FFF41A04FF480706060210084B068461422FCF7CC
S3151FFF41B0B9FD0FBCFDF7ACFB2560002020735348EC
S3151FFF41C0A0604FF4007060600FF225102061210080
S3151FFF41D084B068461422FCF7A5FD0FBCFDF798FBBC
S3151FFF41E04B490860210084B068461422FCF79AFDEC
S3151FFF41F00FBCFDF7FFFB4749086031BD1FB53F49A0
S3151FFF4200454C0C60042008710820887484B06846EA
S3151FFF42101C22FCF787FD0FBCFCF704F92122202186
S3151FFF42202000FCF7ECF91FBD80B53C48012101704A
S3151FFF4230012101710021816007C800F079F831491A
S3151FFF424037480860002008730320886020204860D5
S3151FFF425084B068461422FCF765FD0FBCFDF758FBBB
S3151FFF426001BD00202F49086800220A602E490A68EF
S3151FFF4270012A01D1404203E00968002900D000202E
S3151FFF4280704710B5002000F0BEF8040000F0B5F827
S3151FFF4290224807C800F04CF824480168012902D1BB
S3151FFF42A024B2200007E00068002803D124B264422D
S3151FFF42B0200000E0002010BD38B50020164D280055
S3151FFF42C0FCF797F904002800FCF796F924B264421D
S3151FFF42D0200032BD38B50020094D2800FCF789F9AB
S3151FFF42E004002800FCF788F924B2200032BD000025
S3151FFF42F00C480168491C0160704700000457FF1FE7
S3151FFF430000800B402C57FF1F00F00F4002000900D3
S3151FFF43100057FF1FFC56FF1F009003402057FF1F2C
S3151FFF432080F00F40F856FF1F2002FE431412FE4374
S3151FFF4330F7B59DF80070BDF802409DF80450029E28
S3151FFF43403800C0B2022803DB2E213748FCF7E0FCFA
S3151FFF43502800C0B2032803DB2F213348FCF7D8FC04
S3151FFF43603248016851F001010160314800210160A7
S3151FFF4370304900220A60304A002313603B00DBB23C
S3151FFF4380002B04D1A4B2146005220A6022E0FFB2FB
S3151FFF4390012F1FD12A00D2B2012A04D14FF4C062C6
S3151FFF43A0264B1A6007E02A00D2B2022A03D14FF426
S3151FFF43B08062234B1A6005220A60EDB22D0115F0AC
S3151FFF43C030050560016851F002010160016851F077
S3151FFF43D0040101609DF80510012908D1310000294C
S3151FFF43E005D018490E60016851F040010160016850
S3151FFF43F051F0010101600120FEBD0D48016849080A
S3151FFF4400490001607047104800210160006880B2B3
S3151FFF4410704780B50648016851F080010160094861
S3151FFF44200068804701BD00008852FF1F3880044087
S3151FFF44300000044004000440080004404C90044060
S3151FFF444014B004406C59FF1F0C0004402DE9F843BC
S3151FFF445001000800C0B2C92801D3C821FFE7080021
S3151FFF4460C0B230280ED032281DD060281FD0642836
S3151FFF447021D0782823D0962825D0B42827D0C8281E
S3151FFF448029D02CE05FF0180C00260D0000200A0033
S3151FFF4490D2B23223B2FBF3F2541E2200D2B2FF2A4C
S3151FFF44A021D1002429E05FF0180C0126EDE75FF00C
S3151FFF44B0180C1826E9E75FF0180C1A26E5E75FF0D8
S3151FFF44C0130C1826E1E75FF00F0C1826DDE75FF0E8
S3151FFF44D00E0C1E26D9E75FF00C0C1C26D5E76020B5
S3151FFF44E0FFF7B4FF7BE00A00D2B22300DBB25B1CEF
S3151FFF44F092FBF3F2332A00D3641C0A00D2B2322393
S3151FFF4500B2FBF3F2521E1300DBB2FF2B01D10022C7
S3151FFF451009E00B00DBB21700FFB27F1C93FBF7F31B
S3151FFF4520332B00D3521C0B00DBB21927B3FBF7F358
S3151FFF45305B1E1F00FFB2FF2F01D1002308E0C9B288
S3151FFF45401F00FFB27F1C91FBF7F11A2900D35B1CDB
S3151FFF45500021244F397024490F6857F080570F6089
S3151FFF456022490F7857F080070F70214F9821397016
S3151FFF4570DFF8808098F80010C906F9D498F8001064
S3151FFF4580C1F381010229F9D11CF01F0C1A4981F8C9
S3151FFF459000C0DFF86890002189F80010DBB2D2B2A5
S3151FFF45A0E4B22100C0B201F06BF816F01F0656F0F9
S3151FFF45B0400689F8006098F800008006FBD598F83A
S3151FFF45C000004006FBD5387810F03F00387098F88A
S3151FFF45D00000C0F381000328F9D12800C0B2BDE84F
S3151FFF45E0F28300BF014006403480044008C00740E5
S3151FFF45F00040064006400640044006400540064070
S3151FFF460010B5684C2068002807D5634800688047A7
S3151FFF4610206850F00040206035E02068C00007D5B5
S3151FFF46205D4840688047206850F0805020602AE030
S3151FFF46302068000107D5584880688047206850F0DA
S3151FFF4640006020601FE02068800107D5524800697F
S3151FFF46508047206850F00070206014E02068000338
S3151FFF466007D54D48C0688047206850F4002020605A
S3151FFF467009E02068800306D54748406980472068C0
S3151FFF468050F40030206010BD10B5474C206800283D
S3151FFF469007D5424800688047206850F000402060D9
S3151FFF46A035E02068C00007D53C4840688047206832
S3151FFF46B050F0805020602AE02068000107D5374858
S3151FFF46C080688047206850F0006020601FE02068E8
S3151FFF46D0800107D5314800698047206850F0007078
S3151FFF46E0206014E02068000307D52C48C068804768
S3151FFF46F0206850F40020206009E02068800306D55B
S3151FFF4700264840698047206850F40030206010BD5E
S3151FFF471010B5264C2068002807D52148006880471A
S3151FFF4720206850F00040206035E02068C00007D5A4
S3151FFF47301B4840688047206850F0805020602AE061
S3151FFF47402068000107D5164880688047206850F00B
S3151FFF4750006020601FE02068800107D510480069B0
S3151FFF47608047206850F00070206014E02068000327
S3151FFF477007D50B48C0688047206850F4002020608B
S3151FFF478009E02068800306D50548406980472068F1
S3151FFF479050F40030206010BD9459FF1FAC59FF1F06
S3151FFF47A0C459FF1F2CC002402CD002402CC00A4008
S3151FFF47B0F8B586B04748016851F4785101604648FD
S3151FFF47C04CF2205101804DF6281101804FF4E970FC
S3151FFF47D04249088000F0AEF86420FFF737FE00F06D
S3151FFF47E056F83F4C3F48006820603F4D3F482168C1
S3151FFF47F00268C2F30362521CB1FBF2F129603C4E01
S3151FFF480021680268C2F30352521CB1FBF2F13160F9
S3151FFF4810384F21680068C0F30340401CB1FBF0F01E
S3151FFF48203860354801905FF4E130029001A984B0EA
S3151FFF483068461422FCF776FA0FBCFEF74FFA24A040
S3151FFF4840FCF727FD2D48FCF724FD2D492D48FCF7C6
S3151FFF485020FD28682C49B0FBF1F220682A49B0FBDE
S3151FFF4860F1F12A48FCF715FD38682749B0FBF1F22D
S3151FFF487030682549B0FBF1F12548FCF70AFD2548AD
S3151FFF4880FCF707FD2448FCF704FD07B0F0BD2348DE
S3151FFF48900178C9B211F01F01183121484143214840
S3151FFF48A00078C0B210F01F00401CB1FBF0F00D499D
S3151FFF48B00860704780B51C48FCF7EBFC01BD80B54F
S3151FFF48C01A480178C9B210391948FCF7E2FC01BD35
S3151FFF48D00D0A0000388004400E20054000200540C9
S3151FFF48E0CC56FF1FE056FF1FD056FF1F44800440C4
S3151FFF48F0D856FF1FD456FF1F00B00E40CC52FF1FC6
S3151FFF49007856FF1FC454FF1F40420F004C55FF1F11
S3151FFF49107055FF1F1053FF1FF851FF1F054006401D
S3151FFF492080F0FA0204400640C855FF1F04ED00E061
S3151FFF4930F454FF1F1A491B4A8A4209D0002004E07C
S3151FFF494051F8203042F82030401CB0F5826FF7D364
S3151FFF495015480260154A164B1649C91A03E01878FF
S3151FFF496010705B1C521C0800411E0028F7D1124A0B
S3151FFF49701249891A02E000201070521C0800411EBE
S3151FFF49800028F8D10E4A0F4B0F49C91A03E01878B2
S3151FFF499010705B1C521C0800411E0028F7D1704780
S3151FFF49A00000FF1F0000FF1F08ED00E0C856FF1F96
S3151FFF49B09455FF1FB855FF1FEC56FF1FCCFAFF1F5D
S3151FFF49C08056FF1F4052FF1F8852FF1F010049B22B
S3151FFF49D0002908D4012210F01F018A404D4940B219
S3151FFF49E0400941F8202070470FB470B54A4A059910
S3151FFF49F010684A4BB0FBF3F3069C1068474DB0FB9C
S3151FFF4A00F5F044434FF47A70444303FB0141079C7F
S3151FFF4A101068424AB0FBF2F04443404800FB0414BF
S3151FFF4A209DF81050089E2800C0B2042803DB3221D0
S3151FFF4A303B48FCF76DF9002C03D133213848FCF7AF
S3151FFF4A4067F93848016851F40001016000203649B3
S3151FFF4A500860300000280BD034482900C9B240F83F
S3151FFF4A602160022032492A00D2B212011144886006
S3151FFF4A702F48641E2900C9B2090144502900C9B233
S3151FFF4A8009010144896851F00101EDB22A01104461
S3151FFF4A908160012070BC5DF814FB0FB410B59DF843
S3151FFF4AA008402000C0B2042803DB76211C48FCF710
S3151FFF4AB02FF94434200040B2FFF788FF10BC5DF882
S3151FFF4AC014FB80B51948006880471A48016851F0E2
S3151FFF4AD00101016001BD80B5144840688047164833
S3151FFF4AE0016851F00101016001BD80B50F48806863
S3151FFF4AF080471248016851F00101016001BD80B571
S3151FFF4B000A48C06880470E48016851F001010160DD
S3151FFF4B1001BD000000E100E0D056FF1F40420F001D
S3151FFF4B205454FF1F3C800440007003407859FF1FF9
S3151FFF4B30007103400C7103401C7103402C7103402D
S3151FFF4B403C7103401CB53E4C002020700220A06024
S3151FFF4B500FF229002061210084B068461422FCF75A
S3151FFF4B60E1F80FBCFFF740FF210084B0684614220F
S3151FFF4B70FCF7D8F80FBCFFF790FF13BDF8B5314907
S3151FFF4B800868401C08604FF4FA700A68096891FBB1
S3151FFF4B90F0F100FB1120002805D12B4801682B4A95
S3151FFF4BA01160002101602A4EFFF76BFB3060294F12
S3151FFF4BB0FFF790FB3860284CFFF77EFB2060274DE1
S3151FFF4BC0FFF74FFB2860FEF7C3FF2548B0F900002C
S3151FFF4BD0FDF768F80100306800B2FEF7D5FD00F05B
S3151FFF4BE04FF8204908602048B0F90000FDF75AF832
S3151FFF4BF00100386800B2FEF7C7FD00F041F81B49F8
S3151FFF4C0008601B48B0F90000FDF74CF80100286843
S3151FFF4C1000B2FEF7B9FD00F033F8164908601648D3
S3151FFF4C20B0F90000FDF73EF80100206800B2FEF75D
S3151FFF4C30ABFD00F025F811490860FEF703FDF1BD36
S3151FFF4C407CFAFF1F90FAFF1F9CCAFF1FA0CAFF1FF8
S3151FFF4C50F456FF1FEC56FF1FF056FF1FC856FF1FC8
S3151FFF4C60ACFAFF1F94FAFF1FA4FAFF1F98FAFF1F44
S3151FFF4C70B0FAFF1F9CFAFF1FA8FAFF1FA0FAFF1F1C
S3151FFF4C80C0F3C7517E390EDDC217D1F1200106DDF4
S3151FFF4C90000240F00040C840104450407047D043C8
S3151FFF4CA080F0004070470020704700002DE9F0415B
S3151FFF4CB004000F0015003A4E28003100FCF786FF4F
S3151FFF4CC001002000FCF742FFFFF7DAFF35490860B6
S3151FFF4CD020003900FCF7F8FF804628003100FCF75B
S3151FFF4CE075FF01004046FCF731FFFFF7C9FF2E494D
S3151FFF4CF0086020003900FCF729FF07002800310054
S3151FFF4D00FCF764FF3900FCF7DFFFFFF7B9FF274901
S3151FFF4D10086028003100FCF759FF2100FCF7D4FF7C
S3151FFF4D20FFF7AEFF22490860BDE8F08170B50D00A1
S3151FFF4D301C00C0B2FCF7FCFE06002DB22800FCF7D4
S3151FFF4D40B1FF1C490968002916D01B4D3000FFF71C
S3151FFF4D5097FF010009B2200000B2FEF77CFDFCF7AA
S3151FFF4D60A1FF5FF07C51FCF731FFFFF789FFFCF7CF
S3151FFF4D7099FF060000220DE000250026210009B23B
S3151FFF4D800C00FFF77DFF210000B2FEF73DFDFCF78C
S3151FFF4D9089FF020031002800FFF788FF70BD000062
S3151FFF4DA0EC51383EACFAFF1FA4FAFF1FA8FAFF1FEC
S3151FFF4DB0B0FAFF1FA4CAFF1F0000C84110B5304C31
S3151FFF4DC02078C0070AD52F480078C00706D529487F
S3151FFF4DD000688047207810F0FE002070207880073B
S3151FFF4DE00AD528480078800706D5234800688047DC
S3151FFF4DF0207810F0FD002070207840070AD5214843
S3151FFF4E000078400706D51D4800688047207810F0B8
S3151FFF4E10FB00207010BD10B51B4C2078C0070AD5AC
S3151FFF4E201A480078C00706D5124840688047207881
S3151FFF4E3010F0FE002070207880070AD513480078EF
S3151FFF4E40800706D50C4840688047207810F0FD0084
S3151FFF4E502070207840070AD50C480078400706D5F2
S3151FFF4E60064840688047207810F0FB00207010BD71
S3151FFF4E7000000000DC58FF1FE458FF1FEC58FF1F00
S3151FFF4E8020C00C4021C00C4020D00C4021D00C402C
S3151FFF4E9080B5FCF773FBFCF7C0FAFEF720FFFDF7A3
S3151FFF4EA0F8F9FEF77DFBFFF753F9FFF74BFE01BD41
S3151FFF4EB080B5C0B200280CD04FF496611948007810
S3151FFF4EC0FDF7D6F9FEF784F9FEF752FF00201649C4
S3151FFF4ED0087001BD80B5FFF7DBFFFCF7E4FF124843
S3151FFF4EE00078FFF7E5FF00F029F81048026812B2B5
S3151FFF4EF001215020FCF7E4FC0D48026812B2022183
S3151FFF4F005020FCF7DDFC0B48026812B2032150202C
S3151FFF4F10FCF7D6FC0848026812B206216420FCF78C
S3151FFF4F20CFFCDAE7C6FAFF1FC5FAFF1FA4CAFF1F8A
S3151FFF4F30EC56FF1FF056FF1FC856FF1F80B50020F8
S3151FFF4F401A49087000201A4908700020194908706D
S3151FFF4F501948006800280ED028201849087000201D
S3151FFF4F6017490880174800681749088017480068BF
S3151FFF4F70174908800BE000201049087000201249CE
S3151FFF4F80088000201249088014200D490880104808
S3151FFF4F90B0F900300C48B0F900200948B0F90010ED
S3151FFF4FA006480078FFF7C2FE01BD00BFC9FAFF1F03
S3151FFF4FB0CAFAFF1FC0FAFF1FA4CAFF1FC8FAFF1FA7
S3151FFF4FC0B6FAFF1FA8CAFF1FBCFAFF1FACCAFF1FF7
S3151FFF4FD0BEFAFF1F10B5234C207880071CD520482B
S3151FFF4FE00068804720480178090703D5017851F0EB
S3151FFF4FF0080101700178890703D5017851F0020175
S3151FFF500001702078C00603D5207850F0100020705D
S3151FFF5010207850F00200207010BD10B5134C207879
S3151FFF502080071CD50E48406880471148017809073D
S3151FFF503003D5017851F0080101700178890703D55F
S3151FFF5040017851F0020101702078C00603D5207840
S3151FFF505050F010002070207850F00200207010BD15
S3151FFF50606459FF1F03600640086006400370064031
S3151FFF50700870064038B5164C2068400609D52068CB
S3151FFF5080800606D5134800688047206830F0400029
S3151FFF50902060124D2868C00709D52068800306D5F2
S3151FFF50A00D4800688047286850F0010028600C4DA6
S3151FFF50B02868800709D52068800306D5064800683B
S3151FFF50C08047286850F00200286031BD00000000AD
S3151FFF50D0006003407059FF1F7459FF1F1460034080
S3151FFF50E03C60034080B5DFF85C00016851F000713A
S3151FFF50F00160DFF84C100868002801D00868804758
S3151FFF510001BD80B5DFF83C00016851F00061016009
S3151FFF51100B494868002801D04868804701BD80B504
S3151FFF512007498868002801D08868804701BD80B578
S3151FFF51300349C868002801D0C868804701BD000021
S3151FFF51403459FF1F04000C4010B5134C206848F25A
S3151FFF51501001084212D01149086800280ED00868AE
S3151FFF51608047206850F480402060206850F400403C
S3151FFF517020604FF6FF700A4908600BE0084C206855
S3151FFF5180002807D005494868002803D0486880478C
S3151FFF51900448206010BD000000500440DC59FF1F6B
S3151FFF51A00C5004400000FFFF10B5124C2068C007CB
S3151FFF51B007D50F4800688047206850F00100206020
S3151FFF51C014E02068800707D5094840688047206894
S3151FFF51D050F00200206009E02068400706D504480A
S3151FFF51E080688047206850F00400206010BD0000D3
S3151FFF51F08859FF1F14D003402A2A2A2A2A2A2A2A15
S3151FFF52002A2A2A2A2A2A2A2A2A2A2A2A2A2A2A2ADA
S3151FFF52102A2A2A2A2A2A2A2A2A2A2A2A2A2A2A2ACA
S3151FFF52202A2A2A2A2A2A2A2A2A2A2A2A2A2A2A2ABA
S3151FFF52302A2A2A2A2A2A2A2A2A2A2A2A0D0A00003B
S3151FFF524070B40F4D2C682E6856F47F062E60090624
S3151FFF525011F0706151EA0071120512F470021143C9
S3151FFF5260180410F47020014306480160002000E077
S3151FFF5270401C0100C9B29942FAD32C6070BC70471B
S3151FFF528000F0014044800440433A5C5573657273D6
S3151FFF52905C7175655C4465736B746F705C414141EE
S3151FFF52A05F78696E6269616F5C736D61727463614A
S3151FFF52B0725C6C69625C4C504C445C48575C485747
S3151FFF52C05F4C50544D522E63000000002A2A2A2A93
S3151FFF52D02A2A2A2A2A2A2A20BBF9D3DAC0ADC6D5FB
S3151FFF52E0C0BCB5C24B3630B5D7B2E3BFE220687438
S3151FFF52F074703A2F2F7777772E6C706C642E636ED0
S3151FFF5300202A2A2A2A2A2A2A2A2A2A2A0D0A000074
S3151FFF5310CFB5CDB3C6F4B6AFCDEAB1CFA3ACC8F404
S3151FFF5320D2AABDFBD3C3B5F7CAD4CAE4B3F6C7EB3C
S3151FFF5330B6A8D2E55052494E545F4F4E5F4F464671
S3151FFF5340CEAA31286B36305F636172642E68290DD2
S3151FFF53500A000000433A5C55736572735C7175658D
S3151FFF53605C4465736B746F705C4141415F78696E16
S3151FFF53706269616F5C736D6172746361725C6C6984
S3151FFF5380625C4C504C445C48575C48575F444D41E8
S3151FFF53902E630000433A5C55736572735C717565C6
S3151FFF53A05C4465736B746F705C4141415F78696ED6
S3151FFF53B06269616F5C736D6172746361725C6C6944
S3151FFF53C0625C4C504C445C48575C48575F46544D93
S3151FFF53D02E630000433A5C55736572735C71756586
S3151FFF53E05C4465736B746F705C4141415F78696E96
S3151FFF53F06269616F5C736D6172746361725C6C6904
S3151FFF5400625C4C504C445C48575C48575F47504959
S3151FFF54104F2E6300433A5C55736572735C717565F6
S3151FFF54205C4465736B746F705C4141415F78696E55
S3151FFF54306269616F5C736D6172746361725C6C69C3
S3151FFF5440625C4C504C445C48575C48575F4E56490C
S3151FFF5450432E6300433A5C55736572735C717565C2
S3151FFF54605C4465736B746F705C4141415F78696E15
S3151FFF54706269616F5C736D6172746361725C6C6983
S3151FFF5480625C4C504C445C48575C48575F504954CC
S3151FFF54902E630000B6CFD1D4CAA7B0DCB7A2C9FA14
S3151FFF54A0D3DA20257320B4FAC2EBB5C4B5DA2025AB
S3151FFF54B06420D0D0A3ACC7EBBCECB2E9B2CECAFD19
S3151FFF54C0A1A30A004F534B696E65746973B9CCBCB0
S3151FFF54D0FEBFE2B0E6B1BE3A2573096D61696C3A4C
S3151FFF54E0737570706F7274406C706C642E636E0D83
S3151FFF54F00A0000000D0A2A2A2A2ABDF8C8EBCEB4D5
S3151FFF5500B6A8D2E5D6D0B6CF2C496E746572727522
S3151FFF55107074204E756D6265722025642A2A2A2AA9
S3151FFF55202A0D0A0010B5074979441831064C7C44E9
S3151FFF5530163404E00A68081D114488470146A14234
S3151FFF5540F8D110BD7400000080000000CFB5CDB3A9
S3151FFF5550C4DABACBCAB1D6D33A25644D487A09D72E
S3151FFF5560DCCFDFCAB1D6D33A25644D487A0D0A0080
S3151FFF5570466C6578427573CAB1D6D33A25644D48D2
S3151FFF55807A09466C617368CAB1D6D33A25644D480A
S3151FFF55907A0D0A0001000000FFFFFFFFFFFFFFFF5D
S3151FFF55A0FFFFFFFFFFFFFFFF0000404000E1F50584
S3151FFF55B03C005A0002000101F3B7FFFFE0A3000002
S3151FFF55C0EC56FF1F000000000D0A2A2A2A2AC4DAFA
S3151FFF55D0BACBB7A2C9FAD3B2BCFEB4EDCEF32A2A11
S3151FFF55E02A2A2A0D0A00000000F00DF8002801D014
S3151FFF55F0FFF798FFAFF300800020AFF30080FFF7A0
S3151FFF560069FC00F002F80120704700F001B80000A6
S3151FFF56100746384600F002F8FBE7000080B5AFF3F8
S3151FFF56200080024A11001820ABBEFBE726000200CE
S3151FFF563080B504480068804701BD80B501484068B2
S3151FFF5640804701BD5457FF1F80B5010049B202486D
S3151FFF5650FDF7CAFC01BD000000B00E4080B5024831
S3151FFF56600068804701BD0000145AFF1FAFF300807B
S3151FFF5670AFF30080FFF7B8FF332E30330000000073
S3151FFF568000000000000000000000000000000000F6
S3151FFF569000000000000000000000000000000000E6
S3151FFF56A000000000000000000000000000000000D6
S3151FFF56B000000000000000000000000000000000C6
S7051FFF566D19
