:1000000018B4FF1F11040000210400004556000031
:100010002104000021040000210400000000000071
:1000200000000000000000000000000021040000AB
:100030002104000000000000210400002104000051
:10004000B92E0000CD2E0000E12E0000F52E00009C
:10005000092F00001D2F0000312F0000452F000048
:10006000592F00006D2F0000812F0000952F0000F8
:10007000A92F0000BD2F0000D12F0000E52F0000A8
:1000800021040000210400002104000021040000DC
:1000900021040000210400002104000021040000CC
:1000A0000D5A0000535A00009153000019540000EB
:1000B000A1540000874700008F47000097470000C9
:1000C000A3470000AD470000B7470000B947000054
:1000D000BB470000BD470000C5470000CD470000FA
:1000E000D9470000E34700000D4800000F4800001A
:1000F00011480000D3230000210400000124000067
:10010000210400002F240000210400005D240000D1
:10011000210400008B24000021040000B924000009
:1001200021040000C1600000CB6000002104000039
:1001300021040000210400001F0D0000290D000013
:10014000330D000021040000855C00000000000069
:10015000A74F0000BB4F0000CF4F0000E34F00004F
:10016000515B0000ED60000021040000F95B00001D
:10017000DB5B0000BD5B00000B5C000021040000A5
:10018000210400003D59000097590000255C000043
:1001900021040000F14A000021040000011C0000BD
:1001A000131C0000251C0000371C0000491C000027
:1001B00021040000210400002104000021040000AB
:1001C000210400002104000021040000210400009B
:1001D000210400002104000021040000210400008B
:1001E0004F5600004F5600004F5600004F5600007B
:10041000014880470148004741550000015B00004A
:1004200005F015B90FB43EB59DF81C0010F00F0F84
:1004300004D13521DFF8800800F0B8FC0698DFF819
:100440007C18884207D10025DFF87408016851F054
:10045000807101601BE00698DFF86818884207D1B8
:100460000125DFF85C08016851F0007101600EE0C1
:100470000698DFF85418884207D10225DFF84C08A7
:10048000016851F08071016001E0002054E09DF8A6
:100490001C00C0070AD506A984B068461C2200F0DB
:1004A00091FC0FBC00F0CEF804002BE09DF81C007E
:1004B00080070AD506A984B068461C2200F082FC99
:1004C0000FBC00F063F904001CE09DF81C0040071D
:1004D0000AD506A984B068461C2200F073FC0FBC44
:1004E00000F0FAFB04000DE09DF81C00000709D5A0
:1004F00006A984B068461C2200F064FC0FBC00F022
:100500000AFC04002000C0B2012813D10C98002876
:1005100010D00C98DFF8B8172A00D2B241F82200A8
:100520009DF82C00012805D10698006850F0400085
:10053000069908602000C0B23EBC5DF814FB2DE9AE
:10054000FC4105000E0017009846089C42F211700D
:10055000874204D3C121DFF8600700F027FC424640
:10056000D2B23100C9B2280000F062F9002801D1EE
:1005700000201DE02000C0B2242802D142F21070F9
:10058000C71BA86800900098401C00FB07F042F2CF
:100590001071B0FBF1F12000C0B23200D2B205EB15
:1005A000C202D0603000C0B205EBC0000161012082
:1005B000BDE8F6817CB504000D00160042F2117012
:1005C000864204D3F921DFF8F00600F0EFFB2800A3
:1005D000C0B204EBC000C068400702D542F2107000
:1005E000861BA06800900098401C00FB06F042F2B9
:1005F0001071B0FBF1F12800C0B204EBC000016142
:10060000012076BD406880B270470021416070478C
:1006100070B504000D0016002A00D2B20821200097
:1006200000F006F9002801D100200AE03200D2B221
:100630000921200000F0FCF8002801D1002000E092
:10064000012070BD0FB42DE9F041089C099D9DF873
:1006500028609DF82970DDF81880002C05D140F243
:10066000A721DFF8540600F0A1FB3800C0B24028F3
:1006700005DB4FF42A71DFF8400600F097FBDFF846
:10068000BC060168A14201D200207BE0802000FB73
:1006900004F0B1FBF0FE4FF6FF70864571D20722E1
:1006A00073465FF0400C0CFB04FCB1FBFCFC844582
:1006B00042D25FF0060E724663465FEA441EB1FB0B
:1006C000FEFEF446844537D25FF0050E724663465F
:1006D0005FEA041EB1FBFEFEF44684452CD25FF0B7
:1006E000040E724663465FEAC40EB1FBFEFEF4469A
:1006F000844521D25FF0030E724663465FEA840EA2
:10070000B1FBFEFEF446844516D25FF0020E72463F
:1007100063465FEA440EB1FBFEFEF44684450BD20D
:100720005FF0010E72466346B1FBF4FEF446844569
:1007300002D20020020063460020C8F8000000201A
:10074000C8F804000020C8F84C00C8F80830300091
:10075000C0B2800110F0C000BE465FFA8EFE1EF0EF
:100760003F0E5EEA0000C8F86800C8F86450100048
:10077000C0B210F0070050F00800C8F800000120D7
:1007800000E00020BDE8F0015DF814FB0FB4F8B5FF
:100790009DF82B500C9E069F2800C0B2082805DB50
:1007A0004FF43F71DFF8100500F000FBC020C7F8E0
:1007B000840000203860002078600020F864002069
:1007C000B8607FF00100C7F880000020B867386883
:1007D0002900C9B211F0070151F00801084338603F
:1007E000386830F020003860300000281CD0DFF876
:1007F000CC04874202D1002004000FE0DFF8C404DB
:10080000874202D10120040008E0DFF8BC048742DF
:1008100002D10220040001E0002006E0DFF8B0046D
:100820002100C9B240F821600120F2BC5DF814FB40
:1008300010B40300DFF88404834240F0FD80080018
:10084000C0B200280ED0022846D028D304287DD07C
:100850005FD3062800F0B480C0F09580072800F030
:10086000CC80E7E01000C0B2032808D1DFF8D00444
:10087000046834F4E06454F4407404600EE0100042
:10088000C0B23D2808D1DFF8BC04046834F4E06449
:1008900054F48064046001E000200AE208E21000E1
:1008A000C0B2042808D1DFF8A004046834F4E0647E
:1008B00054F4407404600EE01000C0B23E2808D129
:1008C000DFF88804046834F4E06454F4806404605D
:1008D00001E00020EDE1EBE11000C0B2052808D1F5
:1008E000DFF86C04046834F4E06454F44074046089
:1008F0000EE01000C0B23F2808D1DFF858040468A9
:1009000034F4E06454F48064046001E00020D0E139
:10091000CEE11000C0B2062808D1DFF83C0404681C
:1009200034F4E06454F4407404600EE01000C0B28B
:10093000402808D1DFF82404046834F4E06454F457
:100940008064046001E00020B3E1B1E11000C0B2B6
:10095000072808D1DFF80804046834F4E06454F48C
:10096000407404600EE01000C0B2602808D1DFF8C7
:10097000F403046834F4E06454F48064046001E037
:10098000002096E194E11000C0B2002808D1DFF801
:10099000D803046834F4E06454F4407404600EE056
:1009A0001000C0B2612808D1DFF8C003046834F435
:1009B000E06454F48064046001E0002079E177E1B0
:1009C0001000C0B2012808D1DFF8A403046834F491
:1009D000E06454F4407404600EE01000C0B2622879
:1009E00008D1DFF89003046834F4E06454F48064C0
:1009F000046001E000205CE15AE11000C0B202286E
:100A000008D1DFF87403046834F4E06454F44074EB
:100A100004600EE01000C0B2632808D1DFF85C0368
:100A2000046834F4E06454F48064046001E000205D
:100A30003FE13DE100203CE1DFF89802834240F0D5
:100A4000B0800800C0B2002806D001282ED00828A7
:100A500056D009287CD0A2E01000C0B2082808D1E6
:100A6000DFF81C03046834F4E06454F44074046058
:100A70001BE01000C0B20C2808D1DFF8080304689E
:100A800034F4E06454F4407404600EE01000C0B22A
:100A9000202808D1DFF8F002046834F4E06454F44C
:100AA0004074046001E0002003E101E11000C0B2E5
:100AB000092808D1DFF8D402046834F4E06454F45F
:100AC000407404601BE01000C0B20D2808D1DFF8AC
:100AD000C002046834F4E06454F4407404600EE02E
:100AE0001000C0B2212808D1DFF8A802046834F44D
:100AF000E06454F44074046001E00020D9E0D7E0E1
:100B00001000C0B2082808D1DFF87402046834F479
:100B1000E06454F4C064046019E01000C0B20C2812
:100B200006D1DFF86002046854F4E06404600EE06B
:100B30001000C0B2202808D1DFF84C02046834F459
:100B4000E06454F4C064046001E00020B1E0AFE070
:100B50001000C0B2092808D1DFF83002046834F46C
:100B6000E06454F4C064046019E01000C0B20D28C1
:100B700006D1DFF81C02046854F4E06404600EE05F
:100B80001000C0B2212808D1DFF80802046834F44C
:100B9000E06454F4C064046001E0002089E00020B7
:100BA00087E04948834240F081800800C0B20028B5
:100BB00006D0012821D008283CD0092857D073E05E
:100BC0001000C0B20A2808D1DFF8CC01046834F460
:100BD000E06454F4407404600EE01000C0B23228A7
:100BE00008D1DFF8B801046834F4E06454F44074C8
:100BF000046001E000205CE05AE01000C0B20B2865
:100C000008D1DFF89C01046834F4E06454F44074C3
:100C100004600EE01000C0B2332808D1DFF8840170
:100C2000046834F4E06454F44074046001E000208B
:100C30003FE03DE01000C0B20A2808D1DFF85801BB
:100C4000046834F4E06454F4C06404600EE01000FE
:100C5000C0B2322808D1DFF84401046834F4E064FB
:100C600054F4C064046001E0002022E020E01000A1
:100C7000C0B20B2808D1DFF82801046834F4E0641E
:100C800054F4C06404600EE01000C0B2332808D1F0
:100C9000DFF81001046834F4E06454F4C0640460C4
:100CA00001E0002005E003E0002002E0002000E079
:100CB000012010BC70470000805F000000800340EE
:100CC0003C8004400090034000800B403080044092
:100CD0002807FF1F009003400FB49DF81210009AE0
:100CE000506D50F0010050650020D064002050602D
:100CF0004FF6FF709060D2F880300800C0B2034316
:100D0000C2F88030D2F8800050F00100C2F88000B4
:100D1000012004B070470FB4002004B0704780B5C4
:100D200021480068804701BD80B51F484068804762
:100D300001BD80B51C488068804701BD1404FF1FB9
:100D40000C90044004B004401090044008B00440EB
:100D5000149004400CB004401890044010B00440BB
:100D60001C90044010C004400090044014C0044093
:100D70000490044018C00440089004401CC0044083
:100D8000209004403090044000A00440249004408F
:100D90003490044004A004402890044048A004403B
:100DA0002C9004404CA004402807FF1F38B50400D5
:100DB0000D002A002100024800F006FBFEE700BFFC
:100DC000345E0000103A07D330B4B1E83810103A5E
:100DD000A0E83810F9D230BC530724BFB1E808109E
:100DE000A0E8081044BF51F8043B40F8043BD20788
:100DF00024BF31F8022B20F8022B44BF0B7803707C
:100E00007047121F17D35B0009D151F8043B20F83B
:100E1000023B1B0C121F20F8023BF6D20BE051F8EC
:100E2000043B00F8013B1B0A20F8023B1B0C121F7D
:100E300000F8013BF3D238BF121D521E24BF11F837
:100E4000013B00F8013BF8D8704730B4002513E0AF
:100E500050F8042BD30744BFA9F101039A18091FC6
:100E6000042942F8045BFAD213468C0744BF15806C
:100E70009B1CC90748BF1D7050F8041B0029E7D10F
:100E800030BC704770B504000D00160030680128B2
:100E900002D0022805D00AE0200040B271688847DD
:100EA00005E0B0680470B068401CB060FFE72868D7
:100EB000401C286070BD2DE9F04706000D001400AD
:100EC0000020B1465FF0000A89F800A019F101097D
:100ED000002C24D0D5F800A05146002905D15FF0A0
:100EE000300A89F800A0401C3CE000293AD091FB70
:100EF000F3FA574603FB171ABAF1000F05D5D0468F
:100F00007FEA080818F1310802E0D04618F13008ED
:100F1000390089F8008019F10109401CE5E7D5F88E
:100F200000A05246002A05D15FF0300A89F800A0DF
:100F3000401C17E0002A15D0B2FBF3FAD44603FB9D
:100F40001C2ABAF10A0F03D2D6461EF1300E02E077
:100F5000D6461EF1370E624689F800E019F1010904
:100F6000401CE7E7BDE8F0872DE9F04104000D00E3
:100F700016001F00A046A84507DA3A0031003020CD
:100F8000FFF780FF18F10108F5E7BDE8F0812DE9D2
:100F9000F04104000D0016001F00A046A84507DA26
:100FA0003A0031002020FFF76DFF18F10108F5E746
:100FB000BDE8F0812DE9F24F92B005009346002084
:100FC0000090DDF8488098F9000001900198002811
:100FD00000F0F6810198252813D001980A2805D041
:100FE0002A0069460198FFF74DFF09E02A0069468B
:100FF0000D20FFF747FF2A0069460A20FFF742FF4E
:10100000DBE1002006000020002822D118F10108B1
:1010100098F9001020290ED0232912D02B2907D0AF
:101020002D2902D0302909D00EE056F00106EBE759
:1010300056F00206E8E756F00406E5E756F0080623
:10104000E2E756F01006DFE7B8F1010801210800D9
:10105000DAE700210F00002105910598002813D13F
:1010600018F1010898F9000001900198303809281A
:1010700005D80A21019801FB0707303FEDE7B8F1D9
:10108000010801200590E8E718F1010191F900003D
:101090002E280FD100200590059800280BD1491C5F
:1010A00091F900003038092800D8F5E7491E0120E1
:1010B0000590F1E7491E481C90F900104C2906D014
:1010C000682902D06C2901D002E002E001E000E0D2
:1010D000401E10F1010898F900000190019858286D
:1010E00076D0622800F0D680632800F0248164283E
:1010F00013D0692811D06E2800F051816F2800F0BC
:10110000BC80702800F0D380732800F020817528FF
:1011100000F0DA8078285BD04AE1DBF800001BF1B0
:10112000040B06900A23012206A909A8FFF7C3FEB3
:10113000814609A8484482460698002804D52D20F7
:10114000039019F101090FE0B00704D52B2003909B
:1011500019F1010908E0700704D52020039019F166
:10116000010901E00020039000200490300711D510
:101170000398002804D02A0069460398FFF782FEEE
:10118000012004902B006A4639004846FFF7ECFE28
:10119000B94611E0F0070FD42B006A4639004846E3
:1011A000FFF7F5FE0398002804D02A00694603984B
:1011B000FFF768FE012004900498002807D10398E7
:1011C000002804D02A0069460398FFF75BFE9CE0E4
:1011D000DBF800001BF1040B02901023002202A98F
:1011E00009A8FFF768FE814609A848448246002006
:1011F0000490300715D5F0060BD52A00694630203B
:10120000FFF740FE2A0069467820FFF73BFE0120E9
:1012100004902B006A4639004846FFF7A5FEB94600
:1012200019E0F00717D4F00601D519F102092B00D7
:101230006A4639004846FFF7AAFEF0060BD52A0099
:1012400069463020FFF71EFE2A0069467820FFF726
:1012500019FE01200490F0060ED5049800280BD149
:101260002A0069463020FFF70DFE2A0069467820E3
:10127000FFF708FE19F1020947E0DBF800001BF157
:10128000040B02900823002202A909A8FFF713FE0D
:10129000814625E0DBF800001BF1040B02900223DD
:1012A000002202A909A8FFF706FE814618E0DBF834
:1012B00000001BF1040B02901023002202A909A8D0
:1012C000FFF7F9FD81460BE0DBF800001BF1040B92
:1012D00002900A23002202A909A8FFF7ECFD81462B
:1012E00009A848448246300707D52B006A463900D2
:1012F0004846FFF739FEB94607E0F00705D42B0052
:101300006A4639004846FFF742FE9AF90000002875
:1013100008D02A0069469AF90000FFF7B3FDBAF138
:10132000010AF2E7F00705D52B006A463900484666
:10133000FFF72DFE41E0DBF800001BF1040B40B28B
:1013400007902A0069460798FFF79CFD35E0DBF817
:1013500000001BF1040B0400002C1FD0200000F043
:1013600047F88146F00705D42B006A463900484605
:10137000FFF70DFE94F90000002807D02A00694607
:1013800094F90000FFF77EFD641CF3E7F00705D534
:101390002B006A4639004846FFF7F9FD0DE0DBF8FF
:1013A00000001BF1040B089000980899086004E005
:1013B0002A0069460198FFF765FD18F1010802E669
:1013C000009813B0BDE8F08F0EB43FB504000120C3
:1013D00000900648019007AD2A0021006846FFF7FB
:1013E000E9FD04B030BC5DF810FB0000D9600000DE
:1013F000020011000023002901D1002008E00800AC
:10140000411C90F90000002801D05B1CF7E7180090
:101410007047FF0038B5DFF81446DFF81456256032
:101420004FF4C070606001202073012060730020C1
:10143000A060210084B068461422FFF7C3FC0FBCF3
:1014400000F043FB25604FF4C0606060210084B071
:1014500068461422FFF7B6FC0FBC00F036FB31BD26
:1014600010B408220121DFF8CC351960DFF8C83547
:101470000021196011004A1EC9B2002911D00106CD
:1014800004D50121DFF8B445216003E00021DFF835
:10149000AC4521600121196000BF002119604000A6
:1014A000E8E710BC7047000010B408220021DFF804
:1014B00084351960DFF880350021196011004A1E5B
:1014C000C9B2002911D0010604D50121DFF86C450D
:1014D000216003E00021DFF86445216001211960EB
:1014E00000BF002119604000E8E710BC704738B524
:1014F00004000D00B5F15000C0B2FFF7D5FF200089
:10150000C0B2000950F01000C0B2FFF7CDFF14F0D8
:101510000F0050F00100C0B2FFF7C6FF31BD70B53B
:10152000040000252800C0B2082818DAB5F15000E0
:10153000C0B2FFF7B9FF0120FFF7B6FF1020FFF799
:10154000B3FF002006003000C0B2802805DA20007A
:10155000C0B2FFF785FF761CF5E76D1CE2E770BDB2
:1015600038B500242000C0B2082817DAB4F15000C2
:10157000C0B2FFF799FF0120FFF796FF1020FFF799
:1015800093FF002005002800C0B2802804DA002064
:10159000FFF766FF6D1CF6E7641CE3E731BD00282A
:1015A00008D040F237510A0011004A1E0029FBD131
:1015B000401EF4E7704710B504002020FFF774FFC9
:1015C0002000C0B2FFF770FF10BD10B5040054F04A
:1015D0004000C0B2FFF768FF10BD10B504008120C5
:1015E000FFF762FF2000C0B2FFF75EFF10BD10B52D
:1015F00004008D20FFF758FF54F01000C0B2FFF731
:1016000053FF10BD10B5040054F0A000C0B2FFF7A6
:101610004BFF10BD10B5040054F0A400C0B2FFF79A
:1016200043FF10BD10B5040054F0A600C0B2FFF790
:101630003BFF10BD10B50400A820FFF735FF2000C8
:10164000C0B2FFF731FF10BD10B5040054F0AE007A
:10165000C0B2FFF729FF10BD10B5040054F0C00060
:10166000C0B2FFF721FF10BD10B50400D320FFF773
:101670001BFF2000C0B2FFF717FF10BD10B504001C
:10168000D520FFF711FF2000C0B2FFF70DFF10BDFE
:1016900010B50400D920FFF707FF2000C0B2FFF704
:1016A00003FF10BD10B50400DA20FFF7FDFE54F073
:1016B0000200C0B2FFF7F8FE10BD10B50400DB2039
:1016C000FFF7F2FE2000C0B2FFF7EEFE10BD10B52E
:1016D000FFF7A0FE0120DFF860130860DFF8604329
:1016E000002020603220FFF75AFF012020600020F8
:1016F000FFF7AAFF8020FFF7C1FF3F20FFF79AFF07
:101700000020FFF7B1FF0020FFF75FFF0420FFF785
:101710006EFF0220FFF74FFF0120FFF773FF082045
:10172000FFF79AFF1020FFF7BDFFCF20FFF755FF0F
:10173000F120FFF7ADFF4020FFF7BFFF0020FFF7CC
:1017400069FF0020FFF76EFF0120FFF77DFF0020FB
:10175000FFF7E5FE00210020FFF7C9FE10BD2DE9CF
:10176000F84304000D00160000275FF000085FF04A
:1017700000094846C0B2305C00282BD04846C0B2B1
:10178000305C203807002000C0B27F2802DB002038
:1017900004006D1C2900C9B22000C0B2FFF7A7FEEB
:1017A000002080464046C0B206280FDADFF89412C7
:1017B0003A00D2B20620424301EB02004146C9B2D0
:1017C000405CFFF74DFE18F10108EBE7A41D19F18D
:1017D0000109CEE7BDE8F1832DE9F34F81B00400A4
:1017E0001500BDF8080080B2C008ADF80200BDF8D1
:1017F0000800082190FBF1F901FB19095FF0000ACC
:101800005046BDF8021080B2884236D25146C9B265
:101810000020FFF76CFE5FEACA00ADF80000002070
:1018200007003800290080B289B2884222D2002005
:10183000060000208046404680B2082814DAF6B23E
:101840007608BDF8000010FA88F1280080B2414304
:1018500004EB0100390089B2405CFF2801D156F049
:10186000800618F10108E6E73000C0B2FFF7F8FD86
:101870007F1CD6E71AF1010AC2E75146C9B200201F
:10188000FFF735FE5FEACA00ADF800005FF0000B1D
:101890005846290080B289B2884229D2002100200E
:1018A000804640464A4680B292B2904214D2C9B2B3
:1018B0004908BDF8000010FA88F2280080B24243BF
:1018C00004EB02005A4692B2805CFF2801D151F02D
:1018D000800118F10108E4E70E00F6B2D9F1080022
:1018E00006413000C0B2FFF7BBFD1BF1010BCFE793
:1018F000BDE8F78F00002DE9FE4F81460E00150070
:101900000027002002900196B04600208DF80000CC
:101910004846002100F0C8F904D201208DF80000EB
:1019200099F00049484600F0D1F90400200000F089
:10193000DFF90100484600F0E9F98246AB46BBF109
:10194000010F07DB4048514600F020FA8246BBF108
:10195000010BF4E7504600F0B9F901002B00002913
:1019600001D0012000E00020012B01DB012200E07A
:101970000022C0B2D2B2104300280CD05B1E0A2055
:10198000B1FBF0F200FB12103030F0557F1C0A2042
:10199000B1FBF0F1E3E7002D04D12020F0557F1CCE
:1019A000380003E02E20F0557F1C3800002C02D1B7
:1019B00030223254401C002C0BD00A22B4FBF2F728
:1019C00002FB174230323254401C0A22B4FBF2F4BC
:1019D000F1E79DF90020012A02D12D223254401C4A
:1019E0000022325406EB0002571EB7EB0802012A10
:1019F00019DB98F800C03A7892EA0C0C88F800C01D
:101A000097F800C098F8002092EA0C0C87F800C004
:101A100098F800C03A7892EA0C0C88F800C07F1E53
:101A200018F10108E1E7BDE8FE8F00000879FF1F0B
:101A300080F00F402410FE432010FE431C10FE4394
:101A40002810FE43D44100000000204178B585B045
:101A500004000D001600032269463000FFF74BFF1B
:101A60006A462900C9B22000C0B2FFF778FE06B06E
:101A700070BD2DE9F84185B004000D00160000226C
:101A800069460F009046300000B200F0EBF9424684
:101A90003900FFF730FF6A462900C9B22000C0B202
:101AA000FFF75DFE06B0BDE8F0810000010049B21D
:101AB000002909D4012210F01F018A406749030060
:101AC0005BB25B0941F8232070470FB42DE9F8435E
:101AD0000A9C54F48074089D099E9DF82C709DF812
:101AE0002D80DDF830905E48854203D335215D4876
:101AF000FFF75CF93800C0B2022803DB36215948F1
:101B0000FFF754F94046C0B2022803DB372155489D
:101B1000FFF74CF95448854202D1544A002119E09C
:101B20005348854202D1534A012113E0524885426D
:101B300002D1524A02210DE05148854202D1514A58
:101B4000032107E05048854202D1504A042101E0B8
:101B5000002029E03800C0B201280AD1686930436A
:101B600068614046C0B2012801D16E6004E0AE60F9
:101B700002E06869B043686100200300DBB2202BFB
:101B800009DA3300C340DB0703D50300DBB242F8B8
:101B90002340401CF1E74846002804D03C480B0095
:101BA000DBB240F823900120BDE8F2035DF814FB9E
:101BB0000FB438B5049D2A48854203D38A212948A9
:101BC000FFF7F4F82848854201D100240FE02848A7
:101BD000854201D101240AE02748854201D102242F
:101BE00005E02748854201D1032400E0042414F1D4
:101BF000570040B2FFF75AFF012032BC5DF814FBDA
:101C000080B52348006880475FF0FF3021490860B5
:101C100001BD80B51E48406880475FF0FF301E4917
:101C2000086001BD80B51A48806880475FF0FF30CA
:101C30001A49086001BD80B51548C06880475FF04B
:101C4000FF301749086001BD80B511480069804721
:101C50005FF0FF301349086001BD000000E100E0C3
:101C600001F10F40645E000000F00F40009004405E
:101C700040F00F4000A0044080F00F4000B004404E
:101C8000C0F00F4000C0044000F10F4000D00440FD
:101C90003407FF1FA0900440A0A00440A0B004405F
:101CA000A0C00440A0D004404FF0807C1CEB400F4B
:101CB00094BF1CEB410F05E040EA010C1CEB0C0F3C
:101CC00001D28842704718BF8142704700180CD279
:101CD000010E7F3909D4D1F11F015DBFC00140F071
:101CE0000040C8406FF000007047002070470000BF
:101CF00000280AD0B0FA80F18840D1F19D01C905D1
:101D0000020672F1004241EB1020704790EA010F89
:101D100040F1C08081F00041421A3CBF801A89180E
:101D20004FF0004CC0F3C752FF2A24D0C1F3C75371
:101D300013B3D21AD2F1190327DD4CEA01214CFA70
:101D400003F321EA0303D140C20D4CEA00204018FE
:101D500034BF20EA0C004CEA5000D20553EA00637D
:101D600073EB0C0C52EB1020420012F1807F38BF55
:101D70007047C00DC0057047490212BF9A4200EB80
:101D80005120F8E7D2F11703D9D57047FF2212EAA4
:101D9000D05C1DBF12EAD153944593422BE09C4482
:101DA000D30780EA01021A4043EA002043EA0121F6
:101DB000A1FB0030C04238BF40007CF17F010BDB4B
:101DC000FE294ADA5B0842EAC15153EA006373F123
:101DD000004C51EB10207047D1F1080CDCF12001D0
:101DE0002FDB5B0810FA01F10B4320FA0CF073F1C2
:101DF00000415041704794451CBF02EAD1539342C1
:101E000080EA010202F000421DD0400019D04900D2
:101E100017D05BB9634514D00902B1FA81F3994038
:101E2000BCEB030CC00140F00040C1E70002B0FA77
:101E300080FC10FA0CF0B3EB0C0CC90141F000412E
:101E4000B6E71000704740000AD0490008D010F1F2
:101E5000807F94BF11F1807F02E042F0FF40704725
:101E6000D0437047C2175040801AB0FA80F10AD0B0
:101E70008840D1F19D01D20742EAC151020672F1B8
:101E8000004241EB1020704790EA010F7FF544AF0C
:101E900081F00041431A4FF000423EBF5340C01A48
:101EA000C91800BFD3095FEAD05C13EB400F34BF01
:101EB000B3EB410F40E07CEBD1530CD342EA01215C
:101EC00022D8D1EB402009D3400A28BF5FEA500155
:101ED00040EBCC507047401A15D04002B0FA80F267
:101EE000521C9040400A4FEA3C23B3EB026384BF8C
:101EF00000EB730007E040F400001A16DB07C2F1A4
:101F00000102D04018437047182BFCDC31FA03F271
:101F100002FA03F3591A38BF42F00102D2EB402013
:101F20003CBF4000ACF1010C5FEACC5CC20572F131
:101F300000414CEB5020704713EB400F0FD2C942C9
:101F400009D0ACEBD153022B03DB4902172BDDDDAB
:101F500070479143401AC042D5D10020704713EB1F
:101F6000410FD0D36FF0000070470000010049B26C
:101F700000290AD4012210F01F018A40DFF86815F9
:101F800003005BB25B0941F8232070470FB42DE9D1
:101F9000F047089909989DF828209DF829300B9C56
:101FA0000C9D002802D14FF416563000DFF83C6536
:101FB000B1424CD10027DFF838653668DFF834C508
:101FC000DCF800E05EF4806ECCF800E094465FFA46
:101FD0008CFCBCF1020F06D14FF4007CDFF818E551
:101FE000CEF800C012E094465FFA8CFCBCF10E0FF4
:101FF00006D14FF4407CDFF804E5CEF800C005E0E0
:102000004FF4407CDFF8F8E4CEF800C09C465FFA5D
:102010008CFCBCF1010F06D14FF4007CDFF8E4E446
:10202000CEF800C019E19C465FFA8CFCBCF10F0FA2
:1020300006D14FF4407CDFF8D0E4CEF800C00CE1CC
:102040004FF4407CDFF8C4E4CEF800C005E1DFF8CF
:10205000C064B14232D10127DFF894643668DFF8FA
:1020600094C4DCF800E05EF4006ECCF800E0944626
:102070005FFA8CFCBCF17C0F06D14FF4407CDFF89A
:1020800094E4CEF800C005E04FF4407CDFF888E42B
:10209000CEF800C09C465FFA8CFCBCF17D0F06D1E7
:1020A0004FF4407CDFF874E4CEF800C0D5E04FF484
:1020B000407CDFF86CE4CEF800C0CEE0DFF864646A
:1020C0003668DFF86474B94213D10227DFF824C4FC
:1020D000DCF800E05EF4805ECCF800E04FF4407C79
:1020E000DFF848E4CEF800C0DFF844E4CEF800C0E2
:1020F000B3E0DFF84074B94249D10327DFF8F4C3F5
:10210000DCF800E05EF4005ECCF800E094465FFA94
:102110008CFCBCF1800F06D14FF4407CDFF818E452
:10212000CEF800C012E094465FFA8CFCBCF12B0F95
:1021300006D14FF4407CDFF804E4CEF800C005E09F
:102140004FF4407CDFF8F8E3CEF800C09C465FFA1D
:102150008CFCBCF1810F06D14FF4407CDFF8E4E346
:10216000CEF800C079E09C465FFA8CFCBCF12A0FE7
:1021700006D14FF4407CDFF8D0E3CEF800C06CE02D
:102180004FF4407CDFF8C4E3CEF800C065E0DFF830
:10219000C073B9422FD10427DFF8B8C3DCF800E0E0
:1021A0005EF4806ECCF800E094465FFA8CFCBCF1E3
:1021B000940F06D14FF4407CDFF89CE3CEF800C0CA
:1021C00005E04FF4407CDFF894E3CEF800C09C4675
:1021D0005FFA8CFCBCF1950F06D14FF4407CDFF820
:1021E00080E3CEF800C038E04FF4407CDFF874E3C1
:1021F000CEF800C031E00527DFF86CC36146DFF898
:1022000054C3DCF800E05EF4006ECCF800E09446C5
:102210005FFA8CFCBCF1650F06D14FF4407CDFF80F
:102220004CE3CEF800C005E04FF4407CDFF840E31B
:10223000CEF800C09C465FFA8CFCBCF1640F06D15E
:102240004FF4407CDFF82CE3CEF800C005E04FF4FB
:10225000407CDFF824E3CEF800C091F803C01CF006
:10226000F30C81F803C05FF0000C81F802C05FEA54
:10227000001CB6FBFCFC91F800E01EF0E00ECCF375
:10228000042858EA0E0881F8008081F801C05FEA4E
:1022900046185FEA0019B8FBF9F8E1461FFA89F918
:1022A000B8EB491891F80A9019F0E00918F01F0AE4
:1022B0005AEA090A81F80AA09DF82AA0BAF1010F8A
:1022C00011D1A646BEF1000F0DD091F803E05EF0EB
:1022D000200E81F803E0DFF8A4E2BA465FFA8AFA3A
:1022E0004EF82A4005E091F803E01EF0DF0E81F879
:1022F00003E09DF82BE0BEF1010F11D1AE46BEF117
:10230000000F0DD091F803E05EF0800E81F803E03D
:10231000DFF86CE2BA465FFA8AFA4EF82A5005E016
:1023200091F803E01EF07F0E81F803E091F803E0DE
:102330005EF00C0E81F803E0BDE8F0075DF814FBD9
:1023400002791206FCD5C171704770B504000D000A
:1023500016003000461E002806D095F90010200017
:10236000FFF7EEFF6D1CF4E770BD0FB480B5029867
:102370005E49884203D12D20FFF7F8FD26E0029840
:102380006349884203D12F20FFF7F0FD1EE0029839
:102390006549884203D13120FFF7E8FD16E0029835
:1023A0006449884203D13320FFF7E0FD0EE0029834
:1023B0006749884203D13520FFF7D8FD06E002982F
:1023C0006949884202D13720FFF7D0FD01BC5DF892
:1023D00014FB10B56B4C2078800606D56A4800784F
:1023E000800602D56548006880472078000606D53B
:1023F00065480078000602D561480068804710BD36
:1024000010B5624C2078800606D5614800788006B9
:1024100002D55A48406880472078000606D55C48B7
:102420000078000602D556484068804710BD10B5B8
:10243000584C2078800606D557480078800602D58B
:102440004E48806880472078000606D552480078BC
:10245000000602D54A488068804710BD10B54F4C31
:102460002078800606D54E480078800602D543487D
:10247000C06880472078000606D5494800780006E5
:1024800002D53F48C068804710BD10B5454C207844
:10249000800606D544480078800602D53748006992
:1024A00080472078000606D53F480078000602D510
:1024B00033480069804710BD10B53C4C2078800639
:1024C00006D53B480078800602D52C4840698047F5
:1024D0002078000606D536480078000602D5284840
:1024E0004069804710BD000000E100E000A0064008
:1024F0001004FF1F348004400890044038900440CA
:1025000044A00440049004403C90044040A0044097
:1025100000B0064000D0044010B0044004D0044095
:102520000CB004401404FF1F00C006400CC004405F
:1025300008C0044000D0064010D004402CA0044045
:1025400044B0044014D0044028A0044040B00440EB
:1025500000A00E402880044060D004403CB00440FD
:1025600064D0044038B0044000B00E4024C00440A1
:1025700020D0044020C0044024D00440C807FF1FDE
:10258000E007FF1F04A0064003A0064004B0064079
:1025900003B0064004C0064003C0064004D0064015
:1025A00003D0064004A00E4003A00E4004B00E402D
:1025B00003B00E40010049B200290AD4012210F0F4
:1025C0001F018A40DFF8AC1503005BB25B0941F8DC
:1025D00023207047010049B200290ED4012210F0D7
:1025E0001F018A40DFF8901503005BB25B0941F8D8
:1025F0002320BFF34F8FBFF36F8F704778B587B03D
:10260000DFF878552C685FF0FF302860DFF87065E0
:102610003078042834D1032030705920FFF7DAFFD6
:102620005FF400302860DFF85C150878002805D0DA
:10263000DFF85405DFF85425106004E0DFF850059A
:10264000DFF8482510600878002802D000200870C4
:1026500001E0012008700120DFF838150870DFF86C
:102660003805016851F001010160DFF8301584B0D0
:1026700068462C22FEF7A6FB0FBC00F012FC04E01B
:102680005920FFF7A7FF0220307008B070BD80B559
:102690005920FFF79FFF0120DFF8E4140870DFF8EE
:1026A0000005016851F0010101605920FFF782FF28
:1026B00001BD80B5DFF8C8140878012811D00020CA
:1026C000DFF8E0241070087802281BD1042008707D
:1026D0005FF0FF30DFF8A41408605920FFF76AFFAD
:1026E00010E0DFF8C024107800280BD10120107012
:1026F000042008705FF0FF30DFF880140860592074
:10270000FFF758FF01BD80B5DFF89C14DFF89C048B
:102710000860002008734FF47F4048600020886004
:1027200084B068461422FEF74DFB0FBCFFF7CDF9CD
:1027300001BD80B5DFF87814592008700520486085
:10274000002088600020C86084B068461422FEF72C
:1027500039FB0FBC00F0CBFCDFF85814DFF858044D
:102760000860002008735FF480204860DFF84C04A4
:102770008860DFF84C04086184B068461422FEF7D4
:1027800021FB0FBCFFF7A1F901BD80B5DFF83414C0
:10279000DFF8240408605FF400304860002008730C
:1027A000DFF82404886084B068461422FEF70AFB30
:1027B0000FBCFFF78AF901BD00B587B0DFF8F01351
:1027C0000020087005204860012088600120C86052
:1027D00084B068461422FEF7F5FA0FBC00F087FCBF
:1027E000DFF8B81300200870332048704FF41670DB
:1027F000888001208860DFF8D403C860E4488861DD
:102800000120C883012081F82500DFF8C403886215
:10281000012081F8240084B068462C22FEF7D2FA09
:102820000FBC00F0F3F907B000BD0000002002006B
:1028300092B244F620639A420ADA002211000A009A
:1028400092B2642A02DA00BF491CF8E7401CEEE7A6
:10285000704780B500F0F1FCFFF7E8FF80211220FF
:1028600000F0F2FDFFF7E2FF81210D2000F0ECFD0A
:102870000021112000F0E8FD0321092000F0E4FD13
:10288000D0210C2000F0E0FD4021122000F0DCFD02
:102890003F21172000F0D8FD5021182000F0D4FD72
:1028A0000321192000F0D0FD78211A2000F0CCFD82
:1028B0000021322000F0C8FD0A21A02000F0C4FD54
:1028C000E021632000F0C0FDFF21AC2000F0BCFD42
:1028D0000C21652000F0B8FD0021662000F0B4FD59
:1028E0000021672000F0B0FD1421292000F0ACFD8C
:1028F0001E212C2000F0A8FD00212A2000F0A4FDBC
:102900000C217E2000F0A0FD16217F2000F09CFD10
:102910002A21802000F098FD4E21812000F094FDB6
:102920006121822000F090FD6F21832000F08CFD5A
:102930007B21842000F088FD8621852000F084FD25
:102940008E21862000F080FD9721872000F07CFDFD
:10295000A421882000F078FDAF21892000F074FDCB
:10296000C5218A2000F070FDD7218B2000F06CFD7E
:10297000E8218C2000F068FD20218D2000F064FD0E
:1029800000214A2000F060FD1321492000F05CFD89
:102990000821472000F058FD14214B2000F054FD81
:1029A00017214C2000F050FD0521462000F04CFD81
:1029B0009921222000F048FD0321232000F044FD4E
:1029C0000421A62000F040FD82480188C9B29B2066
:1029D00000F03AFD80480188C9B29C2000F034FD27
:1029E0000E21AB2000F030FD11219E2000F02CFDC7
:1029F00002219F2000F028FD01BD38B40300774874
:102A00000088ADF800001000421E00285FD00A20A8
:102A1000B2FBF0F500FB152009283BD00878040034
:102A2000491C68462500EDB2ED11455D1D705B1C2B
:102A30002500EDB2C5F38015455D1D705B1C2500BA
:102A4000EDB2C5F34015455D1D705B1C2500EDB270
:102A5000C5F30015455D1D705B1C2500EDB2C5F387
:102A6000C005455D1D705B1C2500EDB2C5F38005FA
:102A7000455D1D705B1C2500EDB2C5F34005455D4D
:102A80001D705B1C2500EDB215F00105405D18704E
:102A90005B1CB8E70878524D2870491C002018705C
:102AA000581C00230370401C00230370401C0023AB
:102AB0000370401C00230370401C00230370401C63
:102AC00000230370401C00230370431C9BE731BCB0
:102AD000704738B504000D002000C0B2002807D0B0
:102AE0002A0092B23C3228493E48FFF786FF06E0B2
:102AF0002A0092B23C3226493A48FFF77EFF31BDA8
:102B000080B5FFF7A6FEFFF714FEFFF73EFEFFF7C6
:102B1000FAFDFFF751FE00208DF800000D22012183
:102B2000684600F0CAFC01BD38B50025280000B297
:102B30003C2818DA00200400200000B2502810DAE7
:102B40005020294915FB00F21144220012B2254BF6
:102B500015FB00F0184423001BB2C05C8854641CB1
:102B6000EAE76D1CE2E750223C211F48FEF734FEE5
:102B700031BD000000E100E080E100E0A0B00440D1
:102B80005404FF1F10A4FF1FDC7BFF1F10900040A8
:102B90008479FF1F0FA4FF1F0C8000405879FF1F8E
:102BA0002480004012A4FF1F1C79FF1FC0F00F40BB
:102BB0000C05FF1F3079FF1F80F00F401300090044
:102BC000FD2500004479FF1F03000200D1F00F40F3
:102BD0008F2600005204FF1F5004FF1F1214000034
:102BE00011A4FF1F347EFF1FF490FF1F010049B2A4
:102BF00000290AD4012210F01F018A40DFF8FC13DB
:102C000003005BB25B0941F8232070470FB42DE944
:102C1000F04F85B09DF838609DF839709DF83A0006
:102C20008DF80000BDF83C8010980490119C9DF830
:102C30004890BDF94A00ADF8040013980390149D24
:102C40009DF854A0BDF95600ADF802001698029008
:102C50009DF85CB03000C0B2102804DB3B21DFF8E7
:102C6000A003FEF7A3F83800C0B2402804DB3C21E3
:102C7000DFF88C03FEF79AF8404680B2B0F5004FBB
:102C800004DB3D21DFF87803FEF790F8002C04D137
:102C90003E21DFF86C03FEF789F84846C0B20328EE
:102CA00008DB4846C0B2042804D03F21DFF85003B7
:102CB000FEF77CF8002D04D14021DFF84403FEF735
:102CC00075F85046C0B2032807DB5046C0B204284E
:102CD00003D04121CA48FEF769F8CA48016851F09B
:102CE00002010160C848016851F002010160C74853
:102CF00001680122B24091430160C54917F03F00CD
:102D00003200D2B288549DF80000012808D130006A
:102D1000C0B2085C50F040003200D2B2885407E0E4
:102D20003000C0B2085C10F0BF003200D2B288544C
:102D3000B84A3000C0B240011450BDF8040033005E
:102D4000DBB25B01134498804846C0B2000210F425
:102D5000E0603300DBB25B011344D880039833009A
:102D6000DBB25B011344D8603000C0B240011044B4
:102D70000561BDF802003300DBB25B0113449882A9
:102D80003000C0B240011044C0885346DBB213F09B
:102D9000070318433300DBB25B011344D880029869
:102DA0003300DBB25B01134498615FEA4840400C9A
:102DB0003300DBB25B011344D8825FEA4840400C29
:102DC0003300DBB25B011344D88304983300DBB2D9
:102DD0005B011344986000203300DBB25B011344B5
:102DE00098831898002816D09DF85D00012812D10C
:102DF0003000C0B240011044808B50F0020033001C
:102E0000DBB25B01134498831898834BB4465FFA96
:102E10008CFC43F82C001898002816D09DF85E0012
:102E2000012812D13000C0B240011044808B50F014
:102E300004003300DBB25B01134498831898764B8F
:102E4000B4465FFA8CFC43F82C005846C0B2012807
:102E50000CD13000C0B240011044808B50F008000B
:102E60003300DBB25B011A4490830CE03000C0B247
:102E700040011044838B4FF6F77003403000C0B21E
:102E80004001104483833000C0B2085C50F08000E1
:102E90003200D2B28854012005B0BDE8F00F5DF8D1
:102EA00014FB0FB480B59DF9080040B2FFF79EFEF9
:102EB000012002BC5DF814FB80B5574800688047CC
:102EC0005648016851F00101016001BD80B55248CA
:102ED000406880475148016851F00201016001BD1E
:102EE00080B54D48806880474C48016851F0040126
:102EF000016001BD80B54848C06880474748016807
:102F000051F00801016001BD80B543480069804768
:102F10004248016851F01001016001BD80B53E4892
:102F2000406980473D48016851F02001016001BDC2
:102F300080B53948806980473848016851F04001C0
:102F4000016001BD80B53448C069804733480168DD
:102F500051F08001016001BD80B52F48006A8047B3
:102F60002E48016851F48071016001BD80B52A4886
:102F7000406A80472948016851F40071016001BD31
:102F800080B52548806A80472448016851F00101D6
:102F9000016001BD80B52048C06A80471F480168B4
:102FA00051F40061016001BD80B51B48006B804792
:102FB0001A48016851F48051016001BD80B516487E
:102FC000406B80471548016851F40051016001BD14
:102FD00080B51148806B80471048016851F48041EA
:102FE000016001BD80B50C48C06B80470B4801688B
:102FF00051F40041016001BD0000000000E100E06B
:10300000545F00003C800440408004400C8000403D
:103010000010024000900040D806FF1F24800040AE
:1030200010B410F00703774C22684FF6FF010A40F6
:10303000754951EA03210A43226010BC7047010020
:1030400049B2002909D4012210F01F018A406F49BA
:1030500003005BB25B0941F823207047010049B2CD
:1030600000290DD4012210F01F018A406849030095
:103070005BB25B0941F82320BFF34F8FBFF36F8F23
:10308000704710B4020052B2002A05D40A01614B05
:10309000040064B21A5508E00A015F4B040064B2F0
:1030A00014F00F04234403F8042C10BC704770B4D0
:1030B000030013F00704D4F10700052801D304200E
:1030C00001E0D4F10700251D072D01D2002500E005
:1030D000E51E012616FA00F0401E0140A94016FA2E
:1030E00005F56D1E2A401143080070BC70470FB4EF
:1030F0002DE9F04701269DF92070DDF824800A9C17
:103100000B9D9DF83090B8F1070F0FD0B8F1060F66
:103110000CD0B8F1050F09D0B8F1040F06D0B8F102
:10312000030F03D03A213D48FDF740FE102C03D396
:103130003B213A48FDF73AFE102D03D33C21374896
:10314000FDF734FEB8F1030F31D03AD3B8F1050FD3
:1031500019D022D3B8F1070F01D00AD331E00720EC
:10316000FFF75EFF002C01D1102D01D300200600D7
:1031700029E00620FFF754FF022C01D2082D01D3CD
:10318000002006001FE00520FFF74AFF042C01D2B3
:10319000042D01D30020060015E00420FFF740FFB6
:1031A000082C01D2022D01D3002006000BE00320E1
:1031B000FFF736FF102C01D2002D01D000200600B1
:1031C00001E0002019E02A0021004046FFF76FFFD0
:1031D00082465146380040B2FFF753FF4846C0B21E
:1031E000012804D1380040B2FFF729FF03E038007E
:1031F00040B2FFF733FF3000C0B2BDE8F0075DF822
:1032000014FB00000CED00E00000FA0500E100E016
:1032100080E100E000E400E018ED00E0C45E0000A2
:1032200001B4BDF80000002805D0BDF80000401E24
:10323000ADF80000F5E701B0704780B586B07D4875
:1032400001904FF44050029001208DF810000120B1
:103250008DF811000020039001A984B06846142263
:10326000FDF7B0FD0FBCFEF730FC07B000BDF8B5B0
:10327000714C01202060714E012030604FF4C87005
:10328000FFF7CEFF6E4D002028606E4F3868002893
:1032900003D101202860002011E0012028600020D7
:1032A00020604FF4C870FFF7BBFF00203060386823
:1032B000002803D001202860002000E00120F2BD9A
:1032C00038B55E4C002020605B4D002028604FF434
:1032D000C870FFF7A5FF012020604FF4C870FFF70A
:1032E0009FFF012028604FF4C870FFF799FF31BDA0
:1032F00010B5524C002020604FF4C870FFF790FFCB
:1033000000204D4908604FF4C870FFF789FF012085
:1033100020604FF4C870FFF783FF002020604FF457
:10332000C870FFF77DFF10BD10B5444C0020206031
:103330004FF4C870FFF774FF01203F4908604FF455
:10334000C870FFF76DFF012020604FF4C870FFF7D1
:1033500067FF002020604FF4C870FFF761FF10BDC9
:1033600038B5364C00202060354D002028604FF4E1
:10337000C870FFF755FF012020604FF4C870FFF7B9
:103380004FFF30480068002805D001202860002049
:103390002060002004E0012028600020206001203F
:1033A00032BD70B5040008252800451EC0B20028B3
:1033B00017D0200603D501201F49086002E0002035
:1033C0001D49086064004FF4C870FFF729FF1B4EC9
:1033D000012030604FF4C870FFF722FF00203060FA
:1033E000E2E770BDF8B508250026154C00202060E6
:1033F0002800451EC0B2002814D076000F4F0020D0
:1034000038604FF4C870FFF70BFF012038604FF4AD
:10341000C870FFF705FF0B4800680028E8D056F099
:103420000106E5E701202060002004490860F6B2AB
:103430003000F2BD00F00F403400FE433000FE4388
:10344000B402FE433402FE4370B504000D000026B2
:103450002900C9B2200080B200F00BF8002806D184
:10346000761C3000C0B21428F2D1002000E0012008
:1034700070BD38B504000D00FFF7F9FE002801D13A
:10348000002019E04220FFF78CFFFFF769FF0028BA
:1034900003D1FFF715FF00200EE02000C0B2FFF7B8
:1034A00080FFFFF75DFF2800C0B2FFF77AFFFFF74C
:1034B00057FFFFF705FF012032BDF8B504000D00EE
:1034C000160000273200D2B2290089B2200000F095
:1034D0000BF8002806D17F1C3800C0B21E28F1D19D
:1034E000002000E00120F2BD70B504000D001600C0
:1034F000FFF7BDFE002801D1002039E04220FFF790
:1035000050FFFFF72DFF002803D1FFF7D9FE002061
:103510002EE03000C0B2FFF744FFFFF721FFFFF7B6
:10352000CFFEFFF7A4FE002801D1002020E04320B9
:10353000FFF737FFFFF714FF002803D1FFF7C0FEA6
:10354000002015E0280080B200280ED0FFF74AFFC7
:103550002070280080B2012802D1FFF7E5FE01E0CB
:10356000FFF7C6FE641C6D1EECE7FFF7A9FE012005
:1035700070BD000010B5DFF8F0432068012805D1C8
:1035800000F020F80020DFF8E4130870206802281B
:1035900005D100F083F90020DFF8D013087020680F
:1035A000032805D100F0E5F80020DFF8C01308700B
:1035B0002068042805D100F065F80020DFF8AC137E
:1035C000087010BD38B5FFF7AFFADFF8A443B4F9BF
:1035D0000000020012B204215020FEF74AFADFF880
:1035E0009403026812B205215020FEF742FADFF878
:1035F0008853B5F9002006215020FEF73AFADFF88B
:103600006C03007801281AD0032821D0042806D0A2
:1036100006280CD0082831D0092822D031E0208893
:10362000401F208021889C20FFF70EFF29E0208882
:10363000401D208021889C20FFF706FF21E028887C
:10364000401E2880DFF834030188891E018018E0BD
:103650002888401C2880DFF824030188891C018009
:103660000FE0DFF804030168491C016001680529C7
:1036700001DB01210160FDF773FF02E000F0DBF9DF
:10368000FFE731BD10B582A200210A20FEF767F8DE
:1036900080A201210A20FEF762F8B94C7EA22068C0
:1036A0000100C9B20120FEF75AF8B048007801289D
:1036B00022D002280AD003282AD0042834D0062891
:1036C0003ED008280DD0092846D051E02068401E81
:1036D00020602068002801D500202060FDF740FF11
:1036E00046E02068401C20602068022801DB0120A1
:1036F0002060FDF735FF3BE0A24C206800F0C4F9E4
:103700000022A14B00F0E4F900F0A0FA20602FE0C5
:103710009C4C206800F0B8F900229C4B00F0D8F9CE
:1037200000F094FA206023E0994C206800F0ACF996
:10373000984A994B00F0CCF900F088FA206017E025
:10374000934C206800F0A0F9924A944B00F0C0F925
:1037500000F07CFA20600BE083480168491C01609E
:103760000168052901DB01210160FDF7F9FEFFE792
:1037700010BDF8B579A200210A20FDF7F0FF78A26C
:1037800001210A20FDF7EBFF76A202210A20FDF7B6
:10379000E6FF7B4C40A220680100C9B20120FDF782
:1037A000DEFF7F4D2A6812B200215020FEF761F93A
:1037B0007C4E326812B201215020FEF75AF97A4F3E
:1037C0003A6812B202215020FEF753F96748007898
:1037D000022808D004281CD0062833D008280DD091
:1037E000092848D053E02068401E20602068002847
:1037F00001D500202060FDF7B3FE48E02068401CA2
:1038000020602068032801DB02202060FDF7A8FE6D
:103810003DE02068002803D128680A38286010E0BD
:103820002068012807D130680A3830605F48016895
:103830000A39016005E02068022802D138680A3898
:10384000386024E02068002803D128680A30286006
:1038500010E02068012807D130680A3030605348F2
:1038600001680A31016005E02068022802D1386849
:103870000A3038600BE03C480168491C016001686F
:10388000052901DB01210160FDF76AFEFFE7F1BDBB
:1038900070000000690000002A00000010B54448D4
:1038A000026800215020FEF7D1F84248026812B2A7
:1038B00001215020FEF7DDF82C48007801280AD0BD
:1038C000022815D0032820D004282BD0062836D073
:1038D000092835D040E0384C4FF47A6205212000A9
:1038E000FCF768FE002204212000FCF763FE33E0B1
:1038F000314C002206212000FCF75CFE4FF47A6276
:1039000007212000FCF756FE26E02B4C0022012167
:103910002000FCF74FFE4FF47A6200212000FCF7F4
:1039200049FE19E0244C4FF47A6202212000FCF792
:1039300041FE002203212000FCF73CFE0CE00BE0DE
:1039400009480168491C01600168052901DB012162
:103950000160FDF705FEFFE710BD0000767800006E
:1039600076790000767A00003004FF1F0DA4FF1F57
:103970005004FF1F9878FF1F4C04FF1F4E04FF1FC9
:10398000E878FF1F3404FF1F0000E0BF0000E03FA5
:103990003804FF1F9A9999999999B9BF9999B93F94
:1039A0002404FF1FE078FF1F2804FF1FE478FF1F97
:1039B0002C04FF1F2004FF1F008003401CB52B496F
:1039C0003520087005204860022088600220C86009
:1039D00084B068461422FDF7F5F90FBCFFF787FBAA
:1039E000234C244820605FF4E13060609420207212
:1039F000952060720120A0720FF22900E060210082
:103A000084B068461422FDF7DDF90FBCFEF7BEFA5C
:103A1000210084B068461422FDF7D4F90FBCFEF7EC
:103A2000A4FC13BD012015490870154890F9000049
:103A300011490870704710B50E4C00212000FEF7A8
:103A40007FFC5FF0FF312000FEF77AFC01212000AF
:103A5000FEF776FC01212000FEF772FC4FF496522F
:103A600008492000FEF771FC10BD00000C05FF1F87
:103A7000A004FF1F00A00E4008A4FF1F09A4FF1F01
:103A800007A00E40347EFF1FC0F3C75181B1FF294C
:103A900006D0C110400721F0E04101F160517047AC
:103AA00041020CBF40F4E0016FF00041002070477C
:103AB00000F0004100020AD0B0FA80FC00FA0CF0DD
:103AC00001F16051A1EB0C5101EBD0214005704791
:103AD00070B44FF0004591EA030F40F1EB806B406A
:103AE000841A71EB030604D26E40001BB141121917
:103AF00073414FF4001C1CEB410F34BF7CEB4306B9
:103B000083E00C0DA4EB1356362E00F37C80012EBF
:103B100045EAC32341DC43EA525312BFD202920268
:103B20005B08240545EAC12141EA5051D2EBC0208F
:103B3000994125D407D1B0FA80F610FA06F162D087
:103B40000020203608E0B1FA81F6B140C6F120022B
:103B500020FA02F21143B0404FEAF474B4EB465439
:103B600034F001064FEA74040AD8D6F50016760D33
:103B700004F00044F04061FA06F25040F140484041
:103B8000C00A40EA415021F0004128BF5FEA5005D9
:103B900050F1000044EBD12135E0DB0A45EAC121B8
:103BA000C90AB6F120050EDD42EA0242120CC5F147
:103BB000200603FA06F6EB4042EA06056D429841FC
:103BC00061F100010DE062FA06F5F240554063FA3A
:103BD00006FC82EA0C02F3405A406D42904161EBD0
:103BE000030111F4801F05D1641E620502D06D002F
:103BF0004041494121F48011430875F1004350F1DF
:103C0000000041EB045170BC70471CEB410F15D212
:103C100023F0004352EA43060BD04FEA4C0CBCEBB6
:103C2000410F04D80C0D661E342EB7DDEBE7801A69
:103C3000994150EA410608BF0021E4E708BF1CEBA8
:103C4000430F28BF6FF00001DDE7000001F00042E4
:103C50008B1AA3F16051B1F5801F0ADBB1F17F6FC0
:103C60001FD242EAC102C10071F1004142EB507023
:103C700070470B15C3F10903212B10D2890241EAC9
:103C8000905180020128494141F0004121FA03F09E
:103C9000C3F12003994071F1004150417047100079
:103CA00070476FF0000013EB103F5CBF000E42EA5C
:103CB000C0507047841A71EB030603D2001BB14158
:103CC000121973414FF4001C1CEB410F34BF7CEB05
:103CD000430442E00C0DA4EB1356352E4FDC45EAAD
:103CE000C323DB0A45EAC121C912B6F120050DDD67
:103CF00063FA05F6EB4086EA0305124218BF45F069
:103D00000105C01851F100010CD213E062FA06F56A
:103D1000F2405540F3415A40B340F3405A408018B6
:103D2000594107D349085FEA30005FEA350528BFEB
:103D300045F0010501F58011420875F1004250F18E
:103D4000000041EB04514E0016F5001F70BC38BF57
:103D500070470020090D090570471CEB410F10D278
:103D600052EA43060BD0BCEB410F05D80C0DAB4318
:103D7000661E342EB6DD02E0AB438018594170BC9C
:103D8000704770BC7047000070B5DFF8B40301786D
:103D9000491C01700178012916D100203C2863DA02
:103DA000002150290EDA5022DFF8983302FB00F48C
:103DB0002344DFF8944302FB00F22244525C5A543D
:103DC000491CEEE7401CE9E70178022916D10021E1
:103DD0003C2949DA0022502A0EDA5020DFF86C33F1
:103DE00000FB01F42344DFF8604300FB01F02044B2
:103DF000805C9854521CEEE7491CE9E701780329DE
:103E000016D100213C292FDA0022502A0EDA502048
:103E1000DFF83C3300FB01F42344DFF82C4300FBC4
:103E200001F02044805C9854521CEEE7491CE9E7FD
:103E30000178042918D100223C2A13DA0023502BE0
:103E40000EDA5021DFF80C4301FB02F52C44DFF8B9
:103E5000F85201FB02F12944C95CE1545B1CEEE716
:103E6000521CE9E70021017000213C2923DA0022DD
:103E7000502A1EDA5023B84803FB01F40444B14829
:103E800003FB01F52844855CB04803FB01F6304490
:103E9000805C0540AE4803FB01F63044805C054081
:103EA000AC4803FB01F31844805C0540A554521C48
:103EB000DEE7491CD9E700213C2923DA0022502AF9
:103EC0001EDA5023A54803FB01F404449D4803FB7C
:103ED00001F52844855C9D4803FB01F63044805C75
:103EE00005439B4803FB01F63044805C0543994839
:103EF00003FB01F31844805C0543A554521CDEE724
:103F0000491CD9E700243C2C1BDA0025502D16DA79
:103F100050218D4801FB04F200EB02068F4801FBA3
:103F200004F21044405D8C4A01FB04F11144495DE8
:103F3000401A00B200F028F970556D1CE6E7641CC9
:103F4000E1E787480168491C016001208549086054
:103F500000F001F870BD2DE9F841A3B014A83C2190
:103F600000F01AF96846502100F016F95FF00008D9
:103F7000642464256426642700203C2815DA002187
:103F800050290BDA704A502303FB00F31A44525CA9
:103F9000652A01DB18F10108491CF1E714A901F8B1
:103FA000008000218846401CE7E70020502815DAF1
:103FB00000213C290BDA644A502303FB01F31A4425
:103FC000125C652A01DB18F10108491CF1E769461A
:103FD00001F8008000218846401CE7E700213B29CA
:103FE00024DA14AA505C002806D114A808444078AA
:103FF000002801D0481C0400505C002806D014A8FA
:1040000008444078002801D10D0005E03B2903D188
:10401000505C002800D00D00505C052804DA505C8C
:10402000002801D00C000D00491CD8E700214E29C2
:104030002EDA6A46505C00280BD168460844407866
:10404000002806D0684608448078002801D0481C23
:104050000600505C00280BD16846084440780028D0
:1040600006D0684608448078002801D00F0005E09B
:104070004F2903D1505C002800D00F00505C052868
:1040800004DA505C002801D00F000E00491CCEE776
:10409000642C37D0642D35D0642E33D0642F31D0CA
:1040A0000120314908600120304908600120304971
:1040B000086030480168491C0160AC4202D12E48BA
:1040C000046008E0281900B200F05EF8022190FBBD
:1040D000F1F029490860BE4202D12848066008E094
:1040E000B81900B200F050F8022190FBF1F023491A
:1040F000086021480068224908602048006821497A
:1041000008601AE01848016801290DD10121174AF9
:1041100011601B490968184A11601A490968174A51
:1041200011600021016008E00020104908600020B3
:104130001149086000201149086024B0BDE8F081F1
:104140000CA4FF1FFC07FF1F347EFF1FBC1AFF1FBC
:104150007C2DFF1F3C40FF1FFC52FF1FBC65FF1F53
:104160009078FF1F7C78FF1F8C78FF1F9878FF1FC7
:104170008878FF1FA478FF1F9C78FF1FA078FF1F7F
:104180008078FF1F8478FF1F010009B2012901DA3E
:1041900000B2404200B27047002200F001B80000B7
:1041A00000B500BF130096469446103928BFA0E81A
:1041B0000C50FAD85FEA417C28BF0CC048BF40F8D9
:1041C000042BC90728BF20F8022B48BF00F8012B99
:1041D00000BD00000000000000000000002F0000F3
:1041E00000000700070000147F147F1400242A7FBA
:1041F0002A12006264081323003649552250000039
:104200000503000000001C224100000041221C00A8
:104210000014083E08140008083E0808000000A02A
:104220006000000808080808000060600000002026
:1042300010080402003E5149453E0000427F400004
:10424000004261514946002141454B31001814128A
:104250007F10002745454539003C4A494930000157
:104260007109050300364949493600064949291EA6
:104270000000363600000000563600000008142208
:104280004100001414141414000041221408000208
:104290000151090600324959513E007C1211127C2D
:1042A000007F49494936003E41414122007F41415A
:1042B000221C007F49494941007F09090901003E4C
:1042C0004149497A007F0808087F0000417F41008A
:1042D000002040413F01007F08142241007F404000
:1042E0004040007F020C027F007F0408107F003EE8
:1042F0004141413E007F09090906003E4151215ECE
:10430000007F091929460046494949310001017FCA
:104310000101003F4040403F001F2040201F003F60
:104320004038403F00631408146300070870080712
:1043300000615149454300007F41410000552A5525
:104340002A55000041417F000004020102040040A0
:1043500040404040000001020400002054545478C2
:10436000007F4844443800384444442000384444E2
:10437000487F00385454541800087E090102001880
:10438000A4A4A47C007F080404780000447D4000BD
:10439000004080847D00007F102844000000417FA1
:1043A0004000007C04180478007C0804047800387D
:1043B0004444443800FC242424180018242418FC05
:1043C000007C0804040800485454542000043F446E
:1043D0004020003C4040207C001C2040201C003C31
:1043E0004030403C004428102844001CA0A0A07C81
:1043F000004464544C44141414141414F0B40024F1
:1044000079497A4A0B7803204343D35C5B007848B0
:10441000006803430D780320454353550B78032070
:10442000434313440D780320454302EB05004578D0
:104430006D007048006805435D700B7803204343AE
:1044400013440D780320454302EB050085786D0089
:104450006948006805439D7000231800C0B2032816
:1044600061DA0C780320444302EB04001C00E4B240
:10447000005D10F0070F0AD1604C0D780320454312
:1044800004EB05001C00E4B20025055515E00C788E
:104490000320444302EB04001C00E4B2005D10F072
:1044A0000700072809D1554C0D780320454304EB3C
:1044B00005001C00E4B201250555514D4F4C0E7806
:1044C0000320464305EB06001E00F6B2865D0F781A
:1044D0000320474304EB07001F00FFB2C05D864284
:1044E0001FD00E780320464305EB06001E00F6B2EF
:1044F000805D012806D10878032606FB0030401CA9
:10450000404E30700E780320464335441E00F6B20C
:104510000F780320474304EB07001C00E4B2005D62
:10452000A8555B1C99E70878022803DB0020087077
:10453000087803E008780878401C0870087800289C
:1045400003D0022815D00AD31DE001202E490860AF
:1045500000202E49086000202D49086013E000204B
:10456000294908600120294908600020284908607D
:1045700009E0002024490860002024490860012047
:1045800023490860FFE7F0BC704738B5214C224D45
:1045900025600020A0600020607301202073382077
:1045A0006060210084B068461422FCF70BFC0FBC4D
:1045B000FDF78BFA2560002020730220A060072001
:1045C0006060210084B068461422FCF7FBFB0FBC3E
:1045D000FDF77BFA01200C49086000200B490860B8
:1045E00000200B49086031BD0EA4FF1FC878FF1FD3
:1045F0000022FE430422FE430822FE43BC78FF1F34
:10460000D478FF1F0DA4FF1F0C20FE431020FE4393
:104610001420FE43A878FF1F00F10F4010B40A00D9
:10462000D2B2202A05DA026B01238B401A430263BF
:1046300006E0C36A0124B1F1200294402343C3621F
:1046400010BC704702000800C0B2202804DA106BCA
:10465000C84010F0010005E0D06AB1F12003D84055
:1046600010F00100C0B2704738B504000D002900F9
:10467000C9B22000FFF7E6FF002823D02900C9B205
:104680002000FFF7CBFF5A4884420CD15A4928003A
:10469000C0B251F82000002814D02800C0B251F850
:1046A000200080470EE0534884420BD15349280034
:1046B000C0B251F82000002804D02800C0B251F840
:1046C0002000804731BD38B504000D002900C9B273
:1046D0002000FFF7B7FF012825D1454884420CD1BF
:1046E00045492800C0B251F82000002816D0280003
:1046F000C0B251F82000804710E03E4884420CD1FF
:104700003E492800C0B251F82000002806D02800F9
:10471000C0B251F82000804700E004E02900C9B28F
:104720002000FFF77BFF31BD10B500242000C0B290
:10473000102827DA324A2000C0B2000110580028A1
:104740001ED02000C0B200011044007A022808D117
:104750002100C9B22000C0B200011058FFF784FF49
:104760000EE02000C0B200011044007A012807D1F9
:104770002100C9B22000C0B200011058FFF7A3FF0A
:10478000641CD3E710BD80B5FFF7CEFF01BD042048
:104790001C49086070471B490868820700D50860FB
:1047A00070475FF400301749086070475FF480304D
:1047B00014490860704770477047704780B5FFF72D
:1047C000B3FF01BD04201049086070470E49086816
:1047D000820700D5086070475FF400300A4908601E
:1047E00070475FF48030084908607047000000009F
:1047F0000040024000400A404006FF1F8006FF1FA5
:104800004005FF1F2040024020400A40704770478B
:104810007047000080B500F069F800F01BF800F068
:1048200003F800F04DF801BD1FB56A496A4C0C60F1
:10483000042008710820887484B068461C22FCF7A4
:10484000C1FA0FBCFBF7EEFD332232212000FBF74B
:10485000DFFE1FBD38B5614C614D2560002020731F
:104860000320A0604FF480706060210084B068462F
:104870001422FCF7A7FA0FBCFDF727F925600020EA
:1048800020735848A0604FF4007060600FF2391038
:104890002061210084B068461422FCF793FA0FBC13
:1048A000FDF713F950490860210084B068461422CE
:1048B000FCF788FA0FBCFDF77BF94C49086031BD65
:1048C0001FB544494A4C0C600420087108208874C4
:1048D00084B068461C22FCF775FA0FBCFBF7A2FDFA
:1048E000212220212000FBF793FE1FBD80B5414807
:1048F00001210170012101710021816007C800F0D0
:1049000083F836493C48086000200873032088601B
:104910002020486084B068461422FCF753FA0FBC8C
:10492000FDF7D3F801BD0021344B1A680A20424339
:104930000020186032480368012B02D15242100057
:1049400005E00068002801D1100000E00020704759
:1049500038B5002400F0C6F80A2110FB01F500F07C
:10496000BBF8244807C800F04FF826480168012921
:1049700002D12DB2280007E00068002803D12DB233
:104980006D42280000E0002032BD70B50024184EB2
:104990003000FBF737FE0A2110FB01F53000FBF772
:1049A00034FE2DB26D42280070BD70B500240A4E51
:1049B0003000FBF727FE0A2110FB01F53000FBF762
:1049C00024FE2DB2280070BD0C480168491C01600E
:1049D00070470000D004FF1F00800B40F804FF1F49
:1049E00000F00F4002000900CC04FF1FC804FF1FA5
:1049F00000900340EC04FF1F80F00F40C404FF1F31
:104A00002002FE431412FE43F7B59DF80070BDF876
:104A100002409DF80450029E3800C0B2022803DB19
:104A20002E213948FCF7C2F92800C0B2032803DB65
:104A30002F213548FCF7BAF93448016851F00101DB
:104A40000160334800210160324900220A60324A85
:104A5000002313603B00DBB2002B05D123009BB287
:104A6000136005220A6024E03A00D2B2012A20D164
:104A70002A00D2B2012A04D14FF4C062274B1A6037
:104A800007E02A00D2B2022A03D14FF48062244BFD
:104A90001A6005220A602900C9B2090111F030012B
:104AA0000160016851F002010160016851F00401E8
:104AB00001609DF80510012908D13100002905D0B9
:104AC00018490E60016851F040010160016851F021
:104AD000010101600120FEBD0D480168490849003F
:104AE00001607047104800210160006880B2704783
:104AF00080B50748016851F08001016009480068ED
:104B0000804701BD00000000945E00003880044032
:104B10000000044004000440080004404C9004409D
:104B200014B004405007FF1F0C000440DFF800F0F1
:104B30005904FF1F2DE9F84F0100C9B2C92901D35B
:104B4000C82400E004002000C0B230280ED0322873
:104B50000FD0602810D0642811D0782812D0962861
:104B600013D0B42814D0C82815D017E01825002673
:104B700018E01825012615E01825182612E018253A
:104B80001A260FE0132518260CE00F25182609E039
:104B90000E251E2606E00C251C2603E06020FFF7EC
:104BA000C9FF98E08DF8014000208DF8000020003A
:104BB000C0B23221B0FBF1F0471E3800C0B2FF286E
:104BC00002D10020070009E02000C0B23900C9B2BC
:104BD000491C90FBF1F0332800D37F1C2000C0B2A9
:104BE0003221B0FBF1F0B0F101084046C0B2FF281D
:104BF00002D1002080460AE02000C0B24146C9B27E
:104C0000491C90FBF1F0332801D318F10108200072
:104C1000C0B21921B0FBF1F0B0F101094846C0B2B1
:104C2000FF2802D1002081460AE02000C0B2494698
:104C3000C9B2491C90FBF1F01A2801D319F10109FE
:104C40000020264908702648016851F08051016013
:104C50002448017851F080010170DFF88CA0982081
:104C60008AF80000DFF884B09BF80000C006F9D491
:104C70009BF80000C0F381000228F9D115F01F0055
:104C80001B49087000201B4908704B46DBB24246A6
:104C9000D2B23900C9B29DF80000FFF747FF16F005
:104CA0001F0050F04000134908709BF80000800678
:104CB000FBD59BF800004006FBD59AF8000010F0E9
:104CC0003F008AF800009BF80000C0F38100032831
:104CD000F9D19DF80100BDE8F28F00BF0140064008
:104CE0003480044008C007400040064006400640AB
:104CF00004400640054006401CB5574C002020707B
:104D00000220A0600FF229002061210084B06846D3
:104D10001422FCF757F80FBC00F0D7F8210084B03C
:104D200068461422FCF74EF80FBC00F028F913BDBA
:104D30002DE9F84F49490868401C08604FF4FA70A3
:104D40000A68096891FBF0F100FB1120002805D1E9
:104D500043480168434A11600021016000F08AF96C
:104D6000414CFFF7F5FD2060404DFFF71EFE286027
:104D70003F4EFFF70AFE30603E4FFFF7D4FD38602C
:104D8000FFF73CFB3C490878002802D100F048F8C6
:104D90000CE03A480268521C0260026840F25F135D
:104DA0009A4203DB0022026000200870DFF8D08006
:104DB0004FF4FA60C8F80000DFF8C890C9F80000A6
:104DC000DFF8C4A0CAF80000DFF8C0B0CBF80000DC
:104DD0002F48016809B2286800B200F069F9C8F8E4
:104DE00000002C48016809B2306800B200F060F998
:104DF000C9F800002848016809B2206800B200F034
:104E000057F9CAF800002548016809B2386800B2AD
:104E100000F04EF9CBF8000000F036FABDE8F18F53
:104E20001F480068002803D01E48006800280ED1E3
:104E30001D480168491C0160016840F2F512914269
:104E400008DB0021016001200B49087002E000200E
:104E50001549086070470000B4A3FF1FD0A3FF1FCF
:104E60009078FF1F9478FF1FBC04FF1FB404FF1F3E
:104E7000B804FF1FC004FF1F0BA4FF1FCCA3FF1F1C
:104E8000D4A3FF1FD8A3FF1FDCA3FF1FE0A3FF1FB6
:104E9000E4A3FF1FE8A3FF1FECA3FF1FF0A3FF1F66
:104EA0004402FE43140AFE43C8A3FF1F010049B297
:104EB000002909D4012210F01F018A404E49030045
:104EC0005BB25B0941F8232070470FB470B54B4AC1
:104ED000059910684A4BB0FBF3F3069C1068484DE7
:104EE000B0FBF5F044434FF47A70444303FB0141B7
:104EF000079C1068424AB0FBF2F04443404800FB74
:104F000004149DF81050089E2800C0B2042803DB4A
:104F100032213C48FBF74AFF002C03D133213948AA
:104F2000FBF744FF3848016851F40001016000209C
:104F300036490860300000280BD035482900C9B236
:104F400040F82160022033492A00D2B212011144F4
:104F500088603048611E2A00D2B2120181502900B7
:104F6000C9B209010144896851F001012A00D2B295
:104F7000120110448160012070BC5DF814FB0FB475
:104F800010B59DF808402000C0B2042803DB76214C
:104F90001C48FBF70BFF14F1440040B2FFF786FFFB
:104FA00010BC5DF814FB80B51948006880471A48AA
:104FB000016851F00101016001BD80B514484068ED
:104FC00080471648016851F00101016001BD80B5BC
:104FD0000F48806880471248016851F00101016064
:104FE00001BD80B50A48C06880470E48016851F08D
:104FF0000101016001BD000000E100E01404FF1F99
:1050000040420F00AC5F00003C8004400070034051
:105010005C07FF1F007103400C7103401C710340CB
:105020002C7103403C7103401CB51B4C1B48206095
:10503000002020730320A0605FF400306060210036
:1050400084B068461422FBF7BDFE0FBCFCF73DFDA3
:1050500013482060002020730320A060202060609F
:10506000210084B068461422FBF7ACFE0FBCFCF7AD
:105070002CFD13BD0B480068002808D10A480068C1
:10508000002804D109480168491C016002E00020A1
:1050900006490860704700002005FF1F00F00F4020
:1050A00040F00F404402FE43140AFE433405FF1F44
:1050B0002DE9F84304000D00404E281B3080404F7E
:1050C000DFF80081B8F90000FCF7CCFE8146B6F9A4
:1050D0000000B7F90010401AFCF7C4FE3A4909680D
:1050E000FCF754FE4946FCF7CFFE8146B6F90000B6
:1050F000FCF7B8FE35490968FCF748FE4946FCF75D
:10510000C3FE00F02FF9A8F800003148B8F80010ED
:105110000A2211FB02F10180B0F9001041F2951250
:10512000914203DB41F29411018006E0B0F90010D6
:10513000214A914201DA204901803988254A1180AB
:1051400031883980B0F90000BDE8F2832DE9F843D9
:1051500004000D0000260027B4EB0508DFF880905E
:105160001D48006800F0FEF8424612B21B49B1F932
:105170000030C4460FFA8CFC390009B2BCEB010CBC
:105180000CFB03F302FB0030A9F800004146B9F91B
:105190000000642803DB6420A9F8000008E0B9F9E6
:1051A000000010F1630F03DA7FF06300A9F800003C
:1051B000B9F90000BDE8F2836CEEFFFFF4A3FF1F16
:1051C000F6A3FF1FF8A3FF1F3C04FF1F4004FF1FAF
:1051D000FCA3FF1FFAA3FF1F4804FF1F02A4FF1F29
:1051E000FEA3FF1F1FB55849584C0C6001200871E1
:1051F00043F69820886084B068461C22FBF7E2FDE5
:105200000FBCFBF70FF9282000903D23002200215E
:105210002000FBF794F9282000903E230022012172
:105220002000FBF78CF9282000903F230022022168
:105230002000FBF784F9282000904023002203215E
:105240002000FBF77CF9282000906323002207212F
:105250002000FBF774F92820009062230022062129
:105260002000FBF76CF92820009061230022052123
:105270002000FBF764F9282000906023002204211D
:105280002000FBF75CF91FBD38B5314800780128D4
:105290002BD12E4C40F6B8352A0005212000FBF713
:1052A00089F9002204212000FBF784F9002206215D
:1052B0002000FBF77FF92A0007212000FBF77AF98D
:1052C0002A0001212000FBF775F9002200212000AF
:1052D000FBF770F9002202212000FBF76BF92A008E
:1052E00003212000FBF766F92CE0184C0022052171
:1052F0002000FBF75FF91748026804212000FBF744
:1053000059F91548026806212000FBF753F90022DD
:1053100007212000FBF74EF9002201212000FBF7B6
:1053200049F90E48026800212000FBF743F90C48B8
:10533000026802212000FBF73DF900220321200032
:10534000FBF738F931BD0000EC78FF1F0080034007
:105350000BA4FF1FD4A3FF1FD8A3FF1FDCA3FF1FB5
:10536000E0A3FF1FC0F3C7517E390EDDC217D1F194
:10537000200106DD000240F00040C84010445040CB
:105380007047D04380F00040704700207047000015
:1053900010B5684C2068002807D56348006880472E
:1053A000206850F00040206035E02068C00007D53C
:1053B0005D4840688047206850F0805020602AE0B7
:1053C0002068000107D5584880688047206850F061
:1053D000006020601FE02068800107D55248006906
:1053E0008047206850F00070206014E020680003BF
:1053F00007D54D48C0688047206850F400202060E1
:1054000009E02068800306D5474840698047206846
:1054100050F40030206010BD10B5474C20680028C3
:1054200007D5424800688047206850F0004020605F
:1054300035E02068C00007D53C48406880472068B8
:1054400050F0805020602AE02068000107D53748DE
:1054500080688047206850F0006020601FE020686E
:10546000800107D5314800698047206850F00070FE
:10547000206014E02068000307D52C48C0688047EE
:10548000206850F40020206009E02068800306D5E1
:10549000264840698047206850F40030206010BDE5
:1054A00010B5264C2068002807D5214800688047A1
:1054B000206850F00040206035E02068C00007D52B
:1054C0001B4840688047206850F0805020602AE0E8
:1054D0002068000107D5164880688047206850F092
:1054E000006020601FE02068800107D51048006937
:1054F0008047206850F00070206014E020680003AE
:1055000007D50B48C0688047206850F40020206011
:1055100009E02068800306D5054840698047206877
:1055200050F40030206010BD7807FF1F9007FF1F68
:10553000A807FF1F2CC002402CD002402CC00A40FC
:10554000F8B586B04748016851F478510160464883
:105550004CF2205101804DF6281101804FF4E97082
:105560004249088000F0AEF86420FFF7E3FA00F04B
:1055700056F83F4C3F48006820603F4D3F48216847
:105580000268C2F30362521CB1FBF2F129603C4E87
:1055900021680268C2F30352521CB1FBF2F1316080
:1055A000384F21680068C0F30340401CB1FBF0F0A5
:1055B0003860354801905FF4E130029001A984B071
:1055C00068461422FBF7FEFB0FBCFCF7DFFC24A0AF
:1055D000FBF7FAFE2D48FBF7F7FE2D492D48FBF7A8
:1055E000F3FE28682C49B0FBF1F220682A49B0FB91
:1055F000F1F12A48FBF7E8FE38682749B0FBF1F2E1
:1056000030682549B0FBF1F12548FBF7DDFE254860
:10561000FBF7DAFE2448FBF7D7FE07B0F0BD2348BE
:105620000178C9B211F01F011831214841432148C6
:105630000078C0B210F01F00401CB1FBF0F00D4923
:105640000860704780B51C48FBF7BEFE01BD80B501
:105650001A480178C9B210391948FBF7B5FE01BDE7
:105660000D0A0000388004400E200540002005404F
:105670001004FF1F4404FF1F1404FF1F4480044054
:105680001C04FF1F1804FF1F00B00E40AC5D00009B
:1056900008610000F45E000040420F00006000005E
:1056A00024600000F05D0000D45C0000054006406E
:1056B00080F0FA02044006405860000004ED00E06B
:1056C000245F00002DE9F0411F49204A8A420AD098
:1056D00000231800B0F5826F05D251F8203042F84F
:1056E0002030401CF6E71A490A601A4B1A4A1B4937
:1056F0008E1A3000461E002804D010781870521CF4
:105700005B1CF6E7164D174C671B3800471E002838
:1057100003D0002028706D1CF7E7DFF84CC0DFF8DD
:105720004CE0DFF84C80B8EB0E063000461E002837
:1057300008D09EF800008CF800001EF1010E1CF14C
:10574000010CF2E7BDE8F081000000000000FF1F3F
:1057500008ED00E01004FF1F645D0000AC5D000078
:10576000A004FF1F18A4FF1F5804FF1F1C5D0000AA
:10577000645D000030B405002DB20C0024B22D1B76
:10578000140024B22D1B2D4C25600C0024B204FA09
:1057900080F5140024B22D1B294C25600C0024B286
:1057A00004FA80F404FA82F4264D2C6005002DB230
:1057B0000C0024B22D1B05FA82F4234D2C6030BC62
:1057C00070472DE9F74F04000D001E002700FFB2BF
:1057D000ADF800501D480068002817D01C48D0F8CC
:1057E00000805FF00009310009B2BDF90000FFF749
:1057F000ADFC00B2FCF736FB16490968FCF7C6FAA7
:10580000FFF7B0FD82465FF0000B0BE01248D0F8C6
:1058100000801248D0F800901148D0F800A011483C
:10582000D0F800B05B461BB2524612B2494609B2EC
:10583000404600B2FFF79EFFBDE8F78FE4A3FF1FCD
:10584000ECA3FF1FE8A3FF1FF0A3FF1F9878FF1F23
:105850002004FF1F2C04FF1F2404FF1FE078FF1FFC
:105860002804FF1FE478FF1F80B500202649087038
:105870000020264908700020254908702548006846
:10588000002827D024480168282911DA0021234A5A
:10589000117023490978234A118023490968234A52
:1058A00011800168224800884118224801801DE0CB
:1058B00000211A4A11701A4909781A4A11801A49A6
:1058C00009681A4A118001681B4800884118194864
:1058D00001800BE000201149087000201349088066
:1058E00000201449088014200E4908801148B0F99E
:1058F00000300E48B0F900200A48B0F900100748FF
:105900000078FFF75EFF01BD14A4FF1F15A4FF1F61
:105910000AA4FF1F9878FF1FA078FF1F13A4FF1F82
:105920005504FF1F00A4FF1F9C78FF1F04A4FF1F46
:105930004C04FF1F06A4FF1F4E04FF1F10B52F4C81
:105940002078C0070AD52E480078C00706D5284819
:1059500000688047207810F0FE00207020788007D3
:105960000AD527480078800706D522480068804776
:10597000207810F0FD002070207840070AD52048DC
:105980000078400706D51C4800688047207810F052
:10599000FB00207010BD10B51A4C2078C0070AD546
:1059A00019480078C00706D511484068804720781C
:1059B00010F0FE002070207880070AD51248007889
:1059C000800706D50B4840688047207810F0FD001E
:1059D0002070207840070AD50B480078400706D58C
:1059E000054840688047207810F0FB00207010BD0B
:1059F000C006FF1FC806FF1FD006FF1F20C00C40B7
:105A000021C00C4020D00C4021D00C4010B5244CBB
:105A1000207880071CD521480068804721480178FC
:105A2000090703D5017851F0080101700178890751
:105A300003D5017851F0020101702078C00603D52A
:105A4000207850F010002070207850F00200207074
:105A500010BD10B5144C207880071CD50F48406845
:105A6000804712480178090703D5017851F00801F1
:105A700001700178890703D5017851F002010170A6
:105A80002078C00603D5207850F0100020702078D0
:105A900050F00200207010BD000000004807FF1FFA
:105AA0000360064008600640037006400870064028
:105AB00080B5FBF70CFEFBF753FDFEF766FDFDF727
:105AC0007DFFFDF71DF8FFF78DFBFEF7A3FEFFF747
:105AD000ABFAFFF711F901BD10B504002000C0B208
:105AE00000280CD04FF4167115480078FCF7F1FF30
:105AF000FEF74AF9FDF73EFD00201249087010BD7F
:105B000080B5FFF7D5FFFCF7D4FD0E480078FFF70E
:105B1000E3FFFFF7A9FE0C48026812B202216420DD
:105B2000FBF7A7FF0948026812B203216420FBF7C4
:105B3000A0FF012204216420FBF79BFFE3E70000A4
:105B400010A4FF1F0FA4FF1F9C78FF1FA078FF1F4A
:105B500038B5154C2068400609D52068800606D562
:105B6000124800688047206830F040002060114DE6
:105B70002868C00709D52068800306D50C4800684E
:105B80008047286850F0010028600B4D2868800786
:105B900009D52068800306D5054800688047286835
:105BA00050F00200286031BD006003405407FF1F21
:105BB0005807FF1F146003403C60034080B5DFF8C6
:105BC0006000016851F000710160DFF85010086852
:105BD000002801D00868804701BD80B5DFF840008B
:105BE000016851F000610160DFF83010486800285A
:105BF00001D04868804701BD80B5DFF82010886873
:105C0000002801D08868804701BD80B50349C86875
:105C1000002801D0C868804701BD00001807FF1F99
:105C200004000C4010B5134C206848F210010842E3
:105C300012D01149086800280ED0086880472068F3
:105C400050F480402060206850F4004020604FF6FF
:105C5000FF700A4908600BE0084C2068002807D054
:105C600005494868002803D04868804704482060F8
:105C700010BD000000500440C007FF1F0C5004403E
:105C80000000FFFF10B5124C2068C00707D50F4871
:105C900000688047206850F00100206014E0206810
:105CA000800707D5094840688047206850F0020007
:105CB000206009E02068400706D5044880688047D6
:105CC000206850F00400206010BD00006C07FF1F2A
:105CD00014D003402A2A2A2A2A2A2A2A2A2A2A2AA5
:105CE0002A2A2A2A2A2A2A2A2A2A2A2A2A2A2A2A14
:105CF0002A2A2A2A2A2A2A2A2A2A2A2A2A2A2A2A04
